{
  "address": "0xa54F2f4b4d4102bb12e64cfF87bdaBEbE1644503",
  "abi": [
    {
      "inputs": [
        {
          "internalType": "address",
          "name": "_manager",
          "type": "address"
        }
      ],
      "stateMutability": "nonpayable",
      "type": "constructor"
    },
    {
      "anonymous": false,
      "inputs": [
        {
          "indexed": true,
          "internalType": "address",
          "name": "account",
          "type": "address"
        },
        {
          "indexed": true,
          "internalType": "address",
          "name": "operator",
          "type": "address"
        },
        {
          "indexed": false,
          "internalType": "bool",
          "name": "approved",
          "type": "bool"
        }
      ],
      "name": "ApprovalForAll",
      "type": "event"
    },
    {
      "anonymous": false,
      "inputs": [
        {
          "indexed": false,
          "internalType": "address",
          "name": "couponHolder",
          "type": "address"
        },
        {
          "indexed": false,
          "internalType": "uint256",
          "name": "expiryBlock",
          "type": "uint256"
        },
        {
          "indexed": false,
          "internalType": "uint256",
          "name": "amount",
          "type": "uint256"
        }
      ],
      "name": "BurnedCoupons",
      "type": "event"
    },
    {
      "anonymous": false,
      "inputs": [
        {
          "indexed": false,
          "internalType": "address",
          "name": "recipient",
          "type": "address"
        },
        {
          "indexed": false,
          "internalType": "uint256",
          "name": "expiryBlock",
          "type": "uint256"
        },
        {
          "indexed": false,
          "internalType": "uint256",
          "name": "amount",
          "type": "uint256"
        }
      ],
      "name": "MintedCoupons",
      "type": "event"
    },
    {
      "anonymous": false,
      "inputs": [
        {
          "indexed": true,
          "internalType": "address",
          "name": "operator",
          "type": "address"
        },
        {
          "indexed": true,
          "internalType": "address",
          "name": "from",
          "type": "address"
        },
        {
          "indexed": true,
          "internalType": "address",
          "name": "to",
          "type": "address"
        },
        {
          "indexed": false,
          "internalType": "uint256[]",
          "name": "ids",
          "type": "uint256[]"
        },
        {
          "indexed": false,
          "internalType": "uint256[]",
          "name": "values",
          "type": "uint256[]"
        }
      ],
      "name": "TransferBatch",
      "type": "event"
    },
    {
      "anonymous": false,
      "inputs": [
        {
          "indexed": true,
          "internalType": "address",
          "name": "operator",
          "type": "address"
        },
        {
          "indexed": true,
          "internalType": "address",
          "name": "from",
          "type": "address"
        },
        {
          "indexed": true,
          "internalType": "address",
          "name": "to",
          "type": "address"
        },
        {
          "indexed": false,
          "internalType": "uint256",
          "name": "id",
          "type": "uint256"
        },
        {
          "indexed": false,
          "internalType": "uint256",
          "name": "value",
          "type": "uint256"
        }
      ],
      "name": "TransferSingle",
      "type": "event"
    },
    {
      "anonymous": false,
      "inputs": [
        {
          "indexed": false,
          "internalType": "string",
          "name": "value",
          "type": "string"
        },
        {
          "indexed": true,
          "internalType": "uint256",
          "name": "id",
          "type": "uint256"
        }
      ],
      "name": "URI",
      "type": "event"
    },
    {
      "inputs": [
        {
          "internalType": "address",
          "name": "account",
          "type": "address"
        },
        {
          "internalType": "uint256",
          "name": "id",
          "type": "uint256"
        }
      ],
      "name": "balanceOf",
      "outputs": [
        {
          "internalType": "uint256",
          "name": "",
          "type": "uint256"
        }
      ],
      "stateMutability": "view",
      "type": "function"
    },
    {
      "inputs": [
        {
          "internalType": "address[]",
          "name": "accounts",
          "type": "address[]"
        },
        {
          "internalType": "uint256[]",
          "name": "ids",
          "type": "uint256[]"
        }
      ],
      "name": "balanceOfBatch",
      "outputs": [
        {
          "internalType": "uint256[]",
          "name": "",
          "type": "uint256[]"
        }
      ],
      "stateMutability": "view",
      "type": "function"
    },
    {
      "inputs": [
        {
          "internalType": "address",
          "name": "couponOwner",
          "type": "address"
        },
        {
          "internalType": "uint256",
          "name": "amount",
          "type": "uint256"
        },
        {
          "internalType": "uint256",
          "name": "expiryBlockNumber",
          "type": "uint256"
        }
      ],
      "name": "burnCoupons",
      "outputs": [],
      "stateMutability": "nonpayable",
      "type": "function"
    },
    {
      "inputs": [],
      "name": "getTotalOutstandingDebt",
      "outputs": [
        {
          "internalType": "uint256",
          "name": "",
          "type": "uint256"
        }
      ],
      "stateMutability": "view",
      "type": "function"
    },
    {
      "inputs": [
        {
          "internalType": "address",
          "name": "account",
          "type": "address"
        },
        {
          "internalType": "address",
          "name": "operator",
          "type": "address"
        }
      ],
      "name": "isApprovedForAll",
      "outputs": [
        {
          "internalType": "bool",
          "name": "",
          "type": "bool"
        }
      ],
      "stateMutability": "view",
      "type": "function"
    },
    {
      "inputs": [],
      "name": "manager",
      "outputs": [
        {
          "internalType": "contract UbiquityAlgorithmicDollarManager",
          "name": "",
          "type": "address"
        }
      ],
      "stateMutability": "view",
      "type": "function"
    },
    {
      "inputs": [
        {
          "internalType": "address",
          "name": "recipient",
          "type": "address"
        },
        {
          "internalType": "uint256",
          "name": "amount",
          "type": "uint256"
        },
        {
          "internalType": "uint256",
          "name": "expiryBlockNumber",
          "type": "uint256"
        }
      ],
      "name": "mintCoupons",
      "outputs": [],
      "stateMutability": "nonpayable",
      "type": "function"
    },
    {
      "inputs": [],
      "name": "redemptionContractAddress",
      "outputs": [
        {
          "internalType": "address",
          "name": "",
          "type": "address"
        }
      ],
      "stateMutability": "view",
      "type": "function"
    },
    {
      "inputs": [
        {
          "internalType": "address",
          "name": "from",
          "type": "address"
        },
        {
          "internalType": "address",
          "name": "to",
          "type": "address"
        },
        {
          "internalType": "uint256[]",
          "name": "ids",
          "type": "uint256[]"
        },
        {
          "internalType": "uint256[]",
          "name": "amounts",
          "type": "uint256[]"
        },
        {
          "internalType": "bytes",
          "name": "data",
          "type": "bytes"
        }
      ],
      "name": "safeBatchTransferFrom",
      "outputs": [],
      "stateMutability": "nonpayable",
      "type": "function"
    },
    {
      "inputs": [
        {
          "internalType": "address",
          "name": "from",
          "type": "address"
        },
        {
          "internalType": "address",
          "name": "to",
          "type": "address"
        },
        {
          "internalType": "uint256",
          "name": "id",
          "type": "uint256"
        },
        {
          "internalType": "uint256",
          "name": "amount",
          "type": "uint256"
        },
        {
          "internalType": "bytes",
          "name": "data",
          "type": "bytes"
        }
      ],
      "name": "safeTransferFrom",
      "outputs": [],
      "stateMutability": "nonpayable",
      "type": "function"
    },
    {
      "inputs": [
        {
          "internalType": "address",
          "name": "operator",
          "type": "address"
        },
        {
          "internalType": "bool",
          "name": "approved",
          "type": "bool"
        }
      ],
      "name": "setApprovalForAll",
      "outputs": [],
      "stateMutability": "nonpayable",
      "type": "function"
    },
    {
      "inputs": [
        {
          "internalType": "address",
          "name": "newAddress",
          "type": "address"
        }
      ],
      "name": "setRedemptionContractAddress",
      "outputs": [],
      "stateMutability": "nonpayable",
      "type": "function"
    },
    {
      "inputs": [
        {
          "internalType": "bytes4",
          "name": "interfaceId",
          "type": "bytes4"
        }
      ],
      "name": "supportsInterface",
      "outputs": [
        {
          "internalType": "bool",
          "name": "",
          "type": "bool"
        }
      ],
      "stateMutability": "view",
      "type": "function"
    },
    {
      "inputs": [],
      "name": "updateTotalDebt",
      "outputs": [],
      "stateMutability": "nonpayable",
      "type": "function"
    },
    {
      "inputs": [
        {
          "internalType": "uint256",
          "name": "",
          "type": "uint256"
        }
      ],
      "name": "uri",
      "outputs": [
        {
          "internalType": "string",
          "name": "",
          "type": "string"
        }
      ],
      "stateMutability": "view",
      "type": "function"
    }
  ],
  "transactionHash": "0x30b6df083e412e26674319c766ad3f882d0db068e569ae24d30051044ef6fbbf",
  "args": [
    "0xf1df21D46921Ca23906c2689b9DA25e63e686934"
  ],
  "solcInputHash": "3a4df42f9b85ea8980018f2e9a7fda32",
  "bytecode": "0x6080604052600480546001600160a81b03191690553480156200002157600080fd5b506040516200250138038062002501833981016040819052620000449162000154565b60408051808201909152600381526255524960e81b6020820152620000698162000095565b50600380546001600160a01b0319166001600160a01b03929092169190911790556000600555620001c1565b8051620000aa906002906020840190620000ae565b5050565b828054620000bc9062000184565b90600052602060002090601f016020900481019282620000e057600085556200012b565b82601f10620000fb57805160ff19168380011785556200012b565b828001600101855582156200012b579182015b828111156200012b5782518255916020019190600101906200010e565b50620001399291506200013d565b5090565b5b808211156200013957600081556001016200013e565b60006020828403121562000166578081fd5b81516001600160a01b03811681146200017d578182fd5b9392505050565b600181811c908216806200019957607f821691505b60208210811415620001bb57634e487b7160e01b600052602260045260246000fd5b50919050565b61233080620001d16000396000f3fe608060405234801561001057600080fd5b50600436106100f45760003560e01c8063a22cb46511610097578063e71fc58f11610066578063e71fc58f14610216578063e985e9c514610229578063f242432a14610265578063f7ffe84a14610278576100f4565b8063a22cb465146101d5578063bf625c2d146101e8578063ca49d5b1146101fb578063db87b1ff1461020e576100f4565b80632eb2c2d6116100d35780632eb2c2d614610162578063481c6a75146101775780634e1273f4146101a2578063738f0cf1146101c2576100f4565b8062fdd58e146100f957806301ffc9a71461011f5780630e89341c14610142575b600080fd5b61010c610107366004611e2d565b610280565b6040519081526020015b60405180910390f35b61013261012d366004611f87565b61032c565b6040519015158152602001610116565b610155610150366004611fbf565b610380565b604051610116919061213e565b610175610170366004611cee565b610414565b005b60035461018a906001600160a01b031681565b6040516001600160a01b039091168152602001610116565b6101b56101b0366004611e88565b61077c565b60405161011691906120fd565b6101756101d0366004611e56565b6108f2565b6101756101e3366004611df7565b610b4b565b60045461018a906001600160a01b031681565b610175610209366004611ca2565b610c43565b61010c610e4a565b610175610224366004611e56565b610ebd565b610132610237366004611cbc565b6001600160a01b03918216600090815260016020908152604080832093909416825291909152205460ff1690565b610175610273366004611d94565b6110ab565b6101756112f0565b60006001600160a01b0383166103035760405162461bcd60e51b815260206004820152602b60248201527f455243313135353a2062616c616e636520717565727920666f7220746865207a60448201527f65726f206164647265737300000000000000000000000000000000000000000060648201526084015b60405180910390fd5b506000818152602081815260408083206001600160a01b03861684529091529020545b92915050565b60006001600160e01b03198216636cdb3d1360e11b148061035d57506001600160e01b031982166303a24d0760e21b145b8061037857506301ffc9a760e01b6001600160e01b03198316145b90505b919050565b60606002805461038f906121a4565b80601f01602080910402602001604051908101604052809291908181526020018280546103bb906121a4565b80156104085780601f106103dd57610100808354040283529160200191610408565b820191906000526020600020905b8154815290600101906020018083116103eb57829003601f168201915b50505050509050919050565b815183511461048b5760405162461bcd60e51b815260206004820152602860248201527f455243313135353a2069647320616e6420616d6f756e7473206c656e6774682060448201527f6d69736d6174636800000000000000000000000000000000000000000000000060648201526084016102fa565b6001600160a01b0384166104ef5760405162461bcd60e51b815260206004820152602560248201527f455243313135353a207472616e7366657220746f20746865207a65726f206164604482015264647265737360d81b60648201526084016102fa565b6001600160a01b03851633148061050b575061050b8533610237565b61057d5760405162461bcd60e51b815260206004820152603260248201527f455243313135353a207472616e736665722063616c6c6572206973206e6f742060448201527f6f776e6572206e6f7220617070726f766564000000000000000000000000000060648201526084016102fa565b3360005b845181101561070e5760008582815181106105ac57634e487b7160e01b600052603260045260246000fd5b6020026020010151905060008583815181106105d857634e487b7160e01b600052603260045260246000fd5b602090810291909101810151600084815280835260408082206001600160a01b038e16835290935291909120549091508181101561066b5760405162461bcd60e51b815260206004820152602a60248201527f455243313135353a20696e73756666696369656e742062616c616e636520666f60448201526939103a3930b739b332b960b11b60648201526084016102fa565b610675828261218d565b60008085815260200190815260200160002060008c6001600160a01b03166001600160a01b03168152602001908152602001600020819055508160008085815260200190815260200160002060008b6001600160a01b03166001600160a01b0316815260200190815260200160002060008282546106f39190612175565b92505081905550505050806107079061220c565b9050610581565b50846001600160a01b0316866001600160a01b0316826001600160a01b03167f4a39dc06d4c0dbc64b70af90fd698a233a518aa5d07e595d983b8c0526c8f7fb878760405161075e929190612110565b60405180910390a461077481878787878761137f565b505050505050565b606081518351146107f55760405162461bcd60e51b815260206004820152602960248201527f455243313135353a206163636f756e747320616e6420696473206c656e67746860448201527f206d69736d61746368000000000000000000000000000000000000000000000060648201526084016102fa565b6000835167ffffffffffffffff81111561081f57634e487b7160e01b600052604160045260246000fd5b604051908082528060200260200182016040528015610848578160200160208202803683370190505b50905060005b84518110156108ea576108af85828151811061087a57634e487b7160e01b600052603260045260246000fd5b60200260200101518583815181106108a257634e487b7160e01b600052603260045260246000fd5b6020026020010151610280565b8282815181106108cf57634e487b7160e01b600052603260045260246000fd5b60209081029190910101526108e38161220c565b905061084e565b509392505050565b6003546040805163520eeb7360e11b815290516001600160a01b03909216916391d1485491839163a41dd6e691600480820192602092909190829003018186803b15801561093f57600080fd5b505afa158015610953573d6000803e3d6000fd5b505050506040513d601f19601f820116820180604052508101906109779190611f6f565b6040516001600160e01b031960e084901b168152600481019190915233602482015260440160206040518083038186803b1580156109b457600080fd5b505afa1580156109c8573d6000803e3d6000fd5b505050506040513d601f19601f820116820180604052508101906109ec9190611f53565b610a385760405162461bcd60e51b815260206004820152601e60248201527f43616c6c6572206973206e6f74206120636f75706f6e206d616e61676572000060448201526064016102fa565b81610a438483610280565b1015610ab75760405162461bcd60e51b815260206004820152602860248201527f436f75706f6e206f776e657220646f65736e2774206861766520656e6f75676860448201527f20636f75706f6e7300000000000000000000000000000000000000000000000060648201526084016102fa565b610ac2838284611534565b604080516001600160a01b0385168152602081018390529081018390527ffe9cd66a03bb9bae13904547cf3265727d3fb385e165cfca832f24f62fad083d9060600160405180910390a1600081815260066020526040902054610b2690839061218d565b600082815260066020526040902055600554610b4390839061218d565b600555505050565b336001600160a01b0383161415610bca5760405162461bcd60e51b815260206004820152602960248201527f455243313135353a2073657474696e6720617070726f76616c2073746174757360448201527f20666f722073656c66000000000000000000000000000000000000000000000060648201526084016102fa565b3360008181526001602090815260408083206001600160a01b0387168085529252909120805460ff1916841515179055906001600160a01b03167f17307eab39ab6107e8899845ad3d59bd9653f200f220920489ca2b5937696c3183604051610c37911515815260200190565b60405180910390a35050565b6003546040805163520eeb7360e11b815290516001600160a01b03909216916391d1485491839163a41dd6e691600480820192602092909190829003018186803b158015610c9057600080fd5b505afa158015610ca4573d6000803e3d6000fd5b505050506040513d601f19601f82011682018060405250810190610cc89190611f6f565b6040516001600160e01b031960e084901b168152600481019190915233602482015260440160206040518083038186803b158015610d0557600080fd5b505afa158015610d19573d6000803e3d6000fd5b505050506040513d601f19601f82011682018060405250810190610d3d9190611f53565b610d895760405162461bcd60e51b815260206004820152601e60248201527f43616c6c6572206973206e6f74206120636f75706f6e206d616e61676572000060448201526064016102fa565b600454600160a01b900460ff1615610e095760405162461bcd60e51b815260206004820152602860248201527f526564656d7074696f6e20636f6e74726163742068617320616c72656164792060448201527f6265656e2073657400000000000000000000000000000000000000000000000060648201526084016102fa565b600480546001600160a01b039092167fffffffffffffffffffffff00000000000000000000000000000000000000000090921691909117600160a01b179055565b6005546000908180610e5d6007826116b6565b9150505b81158015610e6e57508015155b15610eb45743811115610e845760019150610ea0565b600081815260066020526040902054610e9d908461218d565b92505b610eab6007826116b6565b9150610e619050565b50909150505b90565b6003546040805163520eeb7360e11b815290516001600160a01b03909216916391d1485491839163a41dd6e691600480820192602092909190829003018186803b158015610f0a57600080fd5b505afa158015610f1e573d6000803e3d6000fd5b505050506040513d601f19601f82011682018060405250810190610f429190611f6f565b6040516001600160e01b031960e084901b168152600481019190915233602482015260440160206040518083038186803b158015610f7f57600080fd5b505afa158015610f93573d6000803e3d6000fd5b505050506040513d601f19601f82011682018060405250810190610fb79190611f53565b6110035760405162461bcd60e51b815260206004820152601e60248201527f43616c6c6572206973206e6f74206120636f75706f6e206d616e61676572000060448201526064016102fa565b61101e838284604051806020016040528060008152506116d0565b604080516001600160a01b0385168152602081018390529081018390527fee6a2b6b9d52e9b905b3b53a76ff201a4762f6d3c40a5a976a7bfbb7cce2499f9060600160405180910390a16110736007826117d1565b5060008181526006602052604090205461108e908390612175565b600082815260066020526040902055600554610b43908390612175565b6001600160a01b03841661110f5760405162461bcd60e51b815260206004820152602560248201527f455243313135353a207472616e7366657220746f20746865207a65726f206164604482015264647265737360d81b60648201526084016102fa565b6001600160a01b03851633148061112b575061112b8533610237565b61119d5760405162461bcd60e51b815260206004820152602960248201527f455243313135353a2063616c6c6572206973206e6f74206f776e6572206e6f7260448201527f20617070726f766564000000000000000000000000000000000000000000000060648201526084016102fa565b336111bd8187876111ad886117e6565b6111b6886117e6565b5050505050565b6000848152602081815260408083206001600160a01b038a168452909152902054838110156112415760405162461bcd60e51b815260206004820152602a60248201527f455243313135353a20696e73756666696369656e742062616c616e636520666f60448201526939103a3930b739b332b960b11b60648201526084016102fa565b61124b848261218d565b6000868152602081815260408083206001600160a01b038c81168552925280832093909355881681529081208054869290611287908490612175565b909155505060408051868152602081018690526001600160a01b03808916928a821692918616917fc3d58168c5ae7397731d063d5bbf3d657854427343f4c083240f7aacaa2d0f62910160405180910390a46112e782888888888861183f565b50505050505050565b6000806112fd600761194a565b90505b8115801561130d57508015155b1561137b574381111561132f57611325600782611957565b506001915061136a565b60008181526006602052604090205460055461134b919061218d565b600555600081815260066020526040812055611368600782611965565b505b611374600761194a565b9050611300565b5050565b6001600160a01b0384163b156107745760405163bc197c8160e01b81526001600160a01b0385169063bc197c81906113c3908990899088908890889060040161205c565b602060405180830381600087803b1580156113dd57600080fd5b505af192505050801561140d575060408051601f3d908101601f1916820190925261140a91810190611fa3565b60015b6114c357611419612253565b806308c379a01415611453575061142e61226a565b806114395750611455565b8060405162461bcd60e51b81526004016102fa919061213e565b505b60405162461bcd60e51b815260206004820152603460248201527f455243313135353a207472616e7366657220746f206e6f6e204552433131353560448201527f526563656976657220696d706c656d656e74657200000000000000000000000060648201526084016102fa565b6001600160e01b0319811663bc197c8160e01b146112e75760405162461bcd60e51b815260206004820152602860248201527f455243313135353a204552433131353552656365697665722072656a656374656044820152676420746f6b656e7360c01b60648201526084016102fa565b6001600160a01b0383166115965760405162461bcd60e51b815260206004820152602360248201527f455243313135353a206275726e2066726f6d20746865207a65726f206164647260448201526265737360e81b60648201526084016102fa565b336115c6818560006115a7876117e6565b6115b0876117e6565b5050604080516020810190915260009052505050565b6000838152602081815260408083206001600160a01b0388168452909152902054828110156116435760405162461bcd60e51b8152602060048201526024808201527f455243313135353a206275726e20616d6f756e7420657863656564732062616c604482015263616e636560e01b60648201526084016102fa565b61164d838261218d565b6000858152602081815260408083206001600160a01b038a811680865291845282852095909555815189815292830188905292938616917fc3d58168c5ae7397731d063d5bbf3d657854427343f4c083240f7aacaa2d0f62910160405180910390a45050505050565b6000806116c5848460016119fe565b915091509250929050565b6001600160a01b0384166117305760405162461bcd60e51b815260206004820152602160248201527f455243313135353a206d696e7420746f20746865207a65726f206164647265736044820152607360f81b60648201526084016102fa565b33611741816000876111ad886117e6565b6000848152602081815260408083206001600160a01b038916845290915281208054859290611771908490612175565b909155505060408051858152602081018590526001600160a01b0380881692600092918516917fc3d58168c5ae7397731d063d5bbf3d657854427343f4c083240f7aacaa2d0f62910160405180910390a46111b68160008787878761183f565b60006117df83836000611a45565b9392505050565b6040805160018082528183019092526060916000919060208083019080368337019050509050828160008151811061182e57634e487b7160e01b600052603260045260246000fd5b602090810291909101015292915050565b6001600160a01b0384163b156107745760405163f23a6e6160e01b81526001600160a01b0385169063f23a6e619061188390899089908890889088906004016120ba565b602060405180830381600087803b15801561189d57600080fd5b505af19250505080156118cd575060408051601f3d908101601f191682019092526118ca91810190611fa3565b60015b6118d957611419612253565b6001600160e01b0319811663f23a6e6160e01b146112e75760405162461bcd60e51b815260206004820152602860248201527f455243313135353a204552433131353552656365697665722072656a656374656044820152676420746f6b656e7360c01b60648201526084016102fa565b6000610378826001611a5c565b60006117df83836001611a45565b600081158061197b57506119798383611a79565b155b1561198857506000610326565b600082815260018481016020818152604080852085805280835281862080548688528388208054808a52878752858a208a80528752858a208390559189529585528388208789528552928720929092559091528390558290558454909185916119f290849061218d565b90915550919392505050565b600080611a0b8585611a79565b611a1a57506000905080611a3d565b505060008281526001848101602090815260408084208515158552909152909120545b935093915050565b6000611a548460008585611afd565b949350505050565b600080611a6b846000856119fe565b9150611a5490508482611965565b60008181526001830160209081526040808320838052909152812054158015611abc57506000828152600180850160209081526040808420928452919052902054155b15611af5576000808052600180850160209081526040808420928452919052902054821415611aed57506001610326565b506000610326565b506001610326565b6000611b098584611a79565b158015611b1b5750611b1b8585611a79565b15611b9d5760008481526001868101602081815260408085208715801580885291845282872080548b8952868652848920838a52808752858a208e9055918c90558089529585528388209188529084528287208a90559086529091528320819055875490928891611b8d908490612175565b9091555060019250611a54915050565b506000949350505050565b80356001600160a01b038116811461037b57600080fd5b600082601f830112611bcf578081fd5b81356020611bdc82612151565b604051611be982826121df565b8381528281019150858301600585901b87018401881015611c08578586fd5b855b85811015611c2657813584529284019290840190600101611c0a565b5090979650505050505050565b600082601f830112611c43578081fd5b813567ffffffffffffffff811115611c5d57611c5d61223d565b604051611c74601f8301601f1916602001826121df565b818152846020838601011115611c88578283fd5b816020850160208301379081016020019190915292915050565b600060208284031215611cb3578081fd5b6117df82611ba8565b60008060408385031215611cce578081fd5b611cd783611ba8565b9150611ce560208401611ba8565b90509250929050565b600080600080600060a08688031215611d05578081fd5b611d0e86611ba8565b9450611d1c60208701611ba8565b9350604086013567ffffffffffffffff80821115611d38578283fd5b611d4489838a01611bbf565b94506060880135915080821115611d59578283fd5b611d6589838a01611bbf565b93506080880135915080821115611d7a578283fd5b50611d8788828901611c33565b9150509295509295909350565b600080600080600060a08688031215611dab578081fd5b611db486611ba8565b9450611dc260208701611ba8565b93506040860135925060608601359150608086013567ffffffffffffffff811115611deb578182fd5b611d8788828901611c33565b60008060408385031215611e09578182fd5b611e1283611ba8565b91506020830135611e22816122fc565b809150509250929050565b60008060408385031215611e3f578182fd5b611e4883611ba8565b946020939093013593505050565b600080600060608486031215611e6a578283fd5b611e7384611ba8565b95602085013595506040909401359392505050565b60008060408385031215611e9a578182fd5b823567ffffffffffffffff80821115611eb1578384fd5b818501915085601f830112611ec4578384fd5b81356020611ed182612151565b604051611ede82826121df565b8381528281019150858301600585901b870184018b1015611efd578889fd5b8896505b84871015611f2657611f1281611ba8565b835260019690960195918301918301611f01565b5096505086013592505080821115611f3c578283fd5b50611f4985828601611bbf565b9150509250929050565b600060208284031215611f64578081fd5b81516117df816122fc565b600060208284031215611f80578081fd5b5051919050565b600060208284031215611f98578081fd5b81356117df8161230d565b600060208284031215611fb4578081fd5b81516117df8161230d565b600060208284031215611fd0578081fd5b5035919050565b6000815180845260208085019450808401835b8381101561200657815187529582019590820190600101611fea565b509495945050505050565b60008151808452815b818110156120365760208185018101518683018201520161201a565b818111156120475782602083870101525b50601f01601f19169290920160200192915050565b60006001600160a01b03808816835280871660208401525060a0604083015261208860a0830186611fd7565b828103606084015261209a8186611fd7565b905082810360808401526120ae8185612011565b98975050505050505050565b60006001600160a01b03808816835280871660208401525084604083015283606083015260a060808301526120f260a0830184612011565b979650505050505050565b6000602082526117df6020830184611fd7565b6000604082526121236040830185611fd7565b82810360208401526121358185611fd7565b95945050505050565b6000602082526117df6020830184612011565b600067ffffffffffffffff82111561216b5761216b61223d565b5060051b60200190565b6000821982111561218857612188612227565b500190565b60008282101561219f5761219f612227565b500390565b600181811c908216806121b857607f821691505b602082108114156121d957634e487b7160e01b600052602260045260246000fd5b50919050565b601f8201601f1916810167ffffffffffffffff811182821017156122055761220561223d565b6040525050565b600060001982141561222057612220612227565b5060010190565b634e487b7160e01b600052601160045260246000fd5b634e487b7160e01b600052604160045260246000fd5b600060033d1115610eba57600481823e5160e01c90565b600060443d101561227a57610eba565b6040516003193d81016004833e81513d67ffffffffffffffff81602484011181841117156122ac575050505050610eba565b82850191508151818111156122c657505050505050610eba565b843d87010160208285010111156122e257505050505050610eba565b6122f1602082860101876121df565b509094505050505090565b801515811461230a57600080fd5b50565b6001600160e01b03198116811461230a57600080fdfea164736f6c6343000803000a",
  "devdoc": {
    "details": "Implements ERC1155 so receiving contracts must implement IERC1155Receiver",
    "kind": "dev",
    "methods": {
      "balanceOf(address,uint256)": {
        "details": "See {IERC1155-balanceOf}. Requirements: - `account` cannot be the zero address."
      },
      "balanceOfBatch(address[],uint256[])": {
        "details": "See {IERC1155-balanceOfBatch}. Requirements: - `accounts` and `ids` must have the same length."
      },
      "burnCoupons(address,uint256,uint256)": {
        "params": {
          "amount": "amount of tokens to burn",
          "couponOwner": "the owner of those coupons",
          "expiryBlockNumber": "the expiration block number of the coupons to burn"
        }
      },
      "isApprovedForAll(address,address)": {
        "details": "See {IERC1155-isApprovedForAll}."
      },
      "mintCoupons(address,uint256,uint256)": {
        "params": {
          "amount": "amount of tokens to mint",
          "expiryBlockNumber": "the expiration block number of the coupons to mint"
        }
      },
      "safeBatchTransferFrom(address,address,uint256[],uint256[],bytes)": {
        "details": "See {IERC1155-safeBatchTransferFrom}."
      },
      "safeTransferFrom(address,address,uint256,uint256,bytes)": {
        "details": "See {IERC1155-safeTransferFrom}."
      },
      "setApprovalForAll(address,bool)": {
        "details": "See {IERC1155-setApprovalForAll}."
      },
      "supportsInterface(bytes4)": {
        "details": "See {IERC165-supportsInterface}."
      },
      "uri(uint256)": {
        "details": "See {IERC1155MetadataURI-uri}. This implementation returns the same URI for *all* token types. It relies on the token type ID substitution mechanism https://eips.ethereum.org/EIPS/eip-1155#metadata[defined in the EIP]. Clients calling this function must replace the `\\{id\\}` substring with the actual token type ID."
      }
    },
    "title": "A coupon redeemable for dollars with an expiry block number",
    "version": 1
  },
  "userdoc": {
    "kind": "user",
    "methods": {
      "burnCoupons(address,uint256,uint256)": {
        "notice": "Burn an amount of coupons expiring at a certain block from a certain holder's balance"
      },
      "getTotalOutstandingDebt()": {
        "notice": "Returns outstanding debt by fetching current tally and removing any expired debt"
      },
      "mintCoupons(address,uint256,uint256)": {
        "notice": "Mint an amount of coupons expiring at a certain block for a certain recipient"
      },
      "setRedemptionContractAddress(address)": {
        "notice": "This can only be done once, and should be done post-deployment!"
      },
      "updateTotalDebt()": {
        "notice": "Should be called prior to any state changing functions."
      }
    },
    "notice": "An ERC1155 where the token ID is the expiry block number",
    "version": 1
  },
  "storageLayout": {
    "storage": [
      {
        "astId": 485,
        "contract": "contracts/DebtCoupon.sol:DebtCoupon",
        "label": "_balances",
        "offset": 0,
        "slot": "0",
        "type": "t_mapping(t_uint256,t_mapping(t_address,t_uint256))"
      },
      {
        "astId": 491,
        "contract": "contracts/DebtCoupon.sol:DebtCoupon",
        "label": "_operatorApprovals",
        "offset": 0,
        "slot": "1",
        "type": "t_mapping(t_address,t_mapping(t_address,t_bool))"
      },
      {
        "astId": 493,
        "contract": "contracts/DebtCoupon.sol:DebtCoupon",
        "label": "_uri",
        "offset": 0,
        "slot": "2",
        "type": "t_string_storage"
      },
      {
        "astId": 5787,
        "contract": "contracts/DebtCoupon.sol:DebtCoupon",
        "label": "manager",
        "offset": 0,
        "slot": "3",
        "type": "t_contract(UbiquityAlgorithmicDollarManager)10271"
      },
      {
        "astId": 5793,
        "contract": "contracts/DebtCoupon.sol:DebtCoupon",
        "label": "redemptionContractAddress",
        "offset": 0,
        "slot": "4",
        "type": "t_address"
      },
      {
        "astId": 5796,
        "contract": "contracts/DebtCoupon.sol:DebtCoupon",
        "label": "_redemptionContractSet",
        "offset": 20,
        "slot": "4",
        "type": "t_bool"
      },
      {
        "astId": 5798,
        "contract": "contracts/DebtCoupon.sol:DebtCoupon",
        "label": "_totalOutstandingDebt",
        "offset": 0,
        "slot": "5",
        "type": "t_uint256"
      },
      {
        "astId": 5802,
        "contract": "contracts/DebtCoupon.sol:DebtCoupon",
        "label": "_tokenSupplies",
        "offset": 0,
        "slot": "6",
        "type": "t_mapping(t_uint256,t_uint256)"
      },
      {
        "astId": 5805,
        "contract": "contracts/DebtCoupon.sol:DebtCoupon",
        "label": "_sortedBlockNumbers",
        "offset": 0,
        "slot": "7",
        "type": "t_struct(List)26192_storage"
      }
    ],
    "types": {
      "t_address": {
        "encoding": "inplace",
        "label": "address",
        "numberOfBytes": "20"
      },
      "t_bool": {
        "encoding": "inplace",
        "label": "bool",
        "numberOfBytes": "1"
      },
      "t_contract(UbiquityAlgorithmicDollarManager)10271": {
        "encoding": "inplace",
        "label": "contract UbiquityAlgorithmicDollarManager",
        "numberOfBytes": "20"
      },
      "t_mapping(t_address,t_bool)": {
        "encoding": "mapping",
        "key": "t_address",
        "label": "mapping(address => bool)",
        "numberOfBytes": "32",
        "value": "t_bool"
      },
      "t_mapping(t_address,t_mapping(t_address,t_bool))": {
        "encoding": "mapping",
        "key": "t_address",
        "label": "mapping(address => mapping(address => bool))",
        "numberOfBytes": "32",
        "value": "t_mapping(t_address,t_bool)"
      },
      "t_mapping(t_address,t_uint256)": {
        "encoding": "mapping",
        "key": "t_address",
        "label": "mapping(address => uint256)",
        "numberOfBytes": "32",
        "value": "t_uint256"
      },
      "t_mapping(t_bool,t_uint256)": {
        "encoding": "mapping",
        "key": "t_bool",
        "label": "mapping(bool => uint256)",
        "numberOfBytes": "32",
        "value": "t_uint256"
      },
      "t_mapping(t_uint256,t_mapping(t_address,t_uint256))": {
        "encoding": "mapping",
        "key": "t_uint256",
        "label": "mapping(uint256 => mapping(address => uint256))",
        "numberOfBytes": "32",
        "value": "t_mapping(t_address,t_uint256)"
      },
      "t_mapping(t_uint256,t_mapping(t_bool,t_uint256))": {
        "encoding": "mapping",
        "key": "t_uint256",
        "label": "mapping(uint256 => mapping(bool => uint256))",
        "numberOfBytes": "32",
        "value": "t_mapping(t_bool,t_uint256)"
      },
      "t_mapping(t_uint256,t_uint256)": {
        "encoding": "mapping",
        "key": "t_uint256",
        "label": "mapping(uint256 => uint256)",
        "numberOfBytes": "32",
        "value": "t_uint256"
      },
      "t_string_storage": {
        "encoding": "bytes",
        "label": "string",
        "numberOfBytes": "32"
      },
      "t_struct(List)26192_storage": {
        "encoding": "inplace",
        "label": "struct StructuredLinkedList.List",
        "members": [
          {
            "astId": 26185,
            "contract": "contracts/DebtCoupon.sol:DebtCoupon",
            "label": "size",
            "offset": 0,
            "slot": "0",
            "type": "t_uint256"
          },
          {
            "astId": 26191,
            "contract": "contracts/DebtCoupon.sol:DebtCoupon",
            "label": "list",
            "offset": 0,
            "slot": "1",
            "type": "t_mapping(t_uint256,t_mapping(t_bool,t_uint256))"
          }
        ],
        "numberOfBytes": "64"
      },
      "t_uint256": {
        "encoding": "inplace",
        "label": "uint256",
        "numberOfBytes": "32"
      }
    }
  }
}