{
  "address": "0xf967DB57518fd2270b309c256db32596527F8709",
  "abi": [
    {
      "inputs": [
        {
          "internalType": "address",
          "name": "_manager",
          "type": "address"
        }
      ],
      "stateMutability": "nonpayable",
      "type": "constructor"
    },
    {
      "anonymous": false,
      "inputs": [
        {
          "indexed": true,
          "internalType": "address",
          "name": "owner",
          "type": "address"
        },
        {
          "indexed": true,
          "internalType": "address",
          "name": "spender",
          "type": "address"
        },
        {
          "indexed": false,
          "internalType": "uint256",
          "name": "value",
          "type": "uint256"
        }
      ],
      "name": "Approval",
      "type": "event"
    },
    {
      "anonymous": false,
      "inputs": [
        {
          "indexed": true,
          "internalType": "address",
          "name": "_burned",
          "type": "address"
        },
        {
          "indexed": false,
          "internalType": "uint256",
          "name": "_amount",
          "type": "uint256"
        }
      ],
      "name": "Burning",
      "type": "event"
    },
    {
      "anonymous": false,
      "inputs": [
        {
          "indexed": true,
          "internalType": "address",
          "name": "_incentivized",
          "type": "address"
        },
        {
          "indexed": true,
          "internalType": "address",
          "name": "_incentiveContract",
          "type": "address"
        }
      ],
      "name": "IncentiveContractUpdate",
      "type": "event"
    },
    {
      "anonymous": false,
      "inputs": [
        {
          "indexed": true,
          "internalType": "address",
          "name": "_to",
          "type": "address"
        },
        {
          "indexed": true,
          "internalType": "address",
          "name": "_minter",
          "type": "address"
        },
        {
          "indexed": false,
          "internalType": "uint256",
          "name": "_amount",
          "type": "uint256"
        }
      ],
      "name": "Minting",
      "type": "event"
    },
    {
      "anonymous": false,
      "inputs": [
        {
          "indexed": false,
          "internalType": "address",
          "name": "account",
          "type": "address"
        }
      ],
      "name": "Paused",
      "type": "event"
    },
    {
      "anonymous": false,
      "inputs": [
        {
          "indexed": true,
          "internalType": "address",
          "name": "from",
          "type": "address"
        },
        {
          "indexed": true,
          "internalType": "address",
          "name": "to",
          "type": "address"
        },
        {
          "indexed": false,
          "internalType": "uint256",
          "name": "value",
          "type": "uint256"
        }
      ],
      "name": "Transfer",
      "type": "event"
    },
    {
      "anonymous": false,
      "inputs": [
        {
          "indexed": false,
          "internalType": "address",
          "name": "account",
          "type": "address"
        }
      ],
      "name": "Unpaused",
      "type": "event"
    },
    {
      "inputs": [],
      "name": "DOMAIN_SEPARATOR",
      "outputs": [
        {
          "internalType": "bytes32",
          "name": "",
          "type": "bytes32"
        }
      ],
      "stateMutability": "view",
      "type": "function"
    },
    {
      "inputs": [],
      "name": "PERMIT_TYPEHASH",
      "outputs": [
        {
          "internalType": "bytes32",
          "name": "",
          "type": "bytes32"
        }
      ],
      "stateMutability": "view",
      "type": "function"
    },
    {
      "inputs": [
        {
          "internalType": "address",
          "name": "owner",
          "type": "address"
        },
        {
          "internalType": "address",
          "name": "spender",
          "type": "address"
        }
      ],
      "name": "allowance",
      "outputs": [
        {
          "internalType": "uint256",
          "name": "",
          "type": "uint256"
        }
      ],
      "stateMutability": "view",
      "type": "function"
    },
    {
      "inputs": [
        {
          "internalType": "address",
          "name": "spender",
          "type": "address"
        },
        {
          "internalType": "uint256",
          "name": "amount",
          "type": "uint256"
        }
      ],
      "name": "approve",
      "outputs": [
        {
          "internalType": "bool",
          "name": "",
          "type": "bool"
        }
      ],
      "stateMutability": "nonpayable",
      "type": "function"
    },
    {
      "inputs": [
        {
          "internalType": "address",
          "name": "account",
          "type": "address"
        }
      ],
      "name": "balanceOf",
      "outputs": [
        {
          "internalType": "uint256",
          "name": "",
          "type": "uint256"
        }
      ],
      "stateMutability": "view",
      "type": "function"
    },
    {
      "inputs": [
        {
          "internalType": "uint256",
          "name": "amount",
          "type": "uint256"
        }
      ],
      "name": "burn",
      "outputs": [],
      "stateMutability": "nonpayable",
      "type": "function"
    },
    {
      "inputs": [
        {
          "internalType": "address",
          "name": "account",
          "type": "address"
        },
        {
          "internalType": "uint256",
          "name": "amount",
          "type": "uint256"
        }
      ],
      "name": "burnFrom",
      "outputs": [],
      "stateMutability": "nonpayable",
      "type": "function"
    },
    {
      "inputs": [],
      "name": "decimals",
      "outputs": [
        {
          "internalType": "uint8",
          "name": "",
          "type": "uint8"
        }
      ],
      "stateMutability": "view",
      "type": "function"
    },
    {
      "inputs": [
        {
          "internalType": "address",
          "name": "spender",
          "type": "address"
        },
        {
          "internalType": "uint256",
          "name": "subtractedValue",
          "type": "uint256"
        }
      ],
      "name": "decreaseAllowance",
      "outputs": [
        {
          "internalType": "bool",
          "name": "",
          "type": "bool"
        }
      ],
      "stateMutability": "nonpayable",
      "type": "function"
    },
    {
      "inputs": [
        {
          "internalType": "address",
          "name": "",
          "type": "address"
        }
      ],
      "name": "incentiveContract",
      "outputs": [
        {
          "internalType": "address",
          "name": "",
          "type": "address"
        }
      ],
      "stateMutability": "view",
      "type": "function"
    },
    {
      "inputs": [
        {
          "internalType": "address",
          "name": "spender",
          "type": "address"
        },
        {
          "internalType": "uint256",
          "name": "addedValue",
          "type": "uint256"
        }
      ],
      "name": "increaseAllowance",
      "outputs": [
        {
          "internalType": "bool",
          "name": "",
          "type": "bool"
        }
      ],
      "stateMutability": "nonpayable",
      "type": "function"
    },
    {
      "inputs": [],
      "name": "manager",
      "outputs": [
        {
          "internalType": "contract UbiquityAlgorithmicDollarManager",
          "name": "",
          "type": "address"
        }
      ],
      "stateMutability": "view",
      "type": "function"
    },
    {
      "inputs": [
        {
          "internalType": "address",
          "name": "to",
          "type": "address"
        },
        {
          "internalType": "uint256",
          "name": "amount",
          "type": "uint256"
        }
      ],
      "name": "mint",
      "outputs": [],
      "stateMutability": "nonpayable",
      "type": "function"
    },
    {
      "inputs": [],
      "name": "name",
      "outputs": [
        {
          "internalType": "string",
          "name": "",
          "type": "string"
        }
      ],
      "stateMutability": "view",
      "type": "function"
    },
    {
      "inputs": [
        {
          "internalType": "address",
          "name": "",
          "type": "address"
        }
      ],
      "name": "nonces",
      "outputs": [
        {
          "internalType": "uint256",
          "name": "",
          "type": "uint256"
        }
      ],
      "stateMutability": "view",
      "type": "function"
    },
    {
      "inputs": [],
      "name": "pause",
      "outputs": [],
      "stateMutability": "nonpayable",
      "type": "function"
    },
    {
      "inputs": [],
      "name": "paused",
      "outputs": [
        {
          "internalType": "bool",
          "name": "",
          "type": "bool"
        }
      ],
      "stateMutability": "view",
      "type": "function"
    },
    {
      "inputs": [
        {
          "internalType": "address",
          "name": "owner",
          "type": "address"
        },
        {
          "internalType": "address",
          "name": "spender",
          "type": "address"
        },
        {
          "internalType": "uint256",
          "name": "value",
          "type": "uint256"
        },
        {
          "internalType": "uint256",
          "name": "deadline",
          "type": "uint256"
        },
        {
          "internalType": "uint8",
          "name": "v",
          "type": "uint8"
        },
        {
          "internalType": "bytes32",
          "name": "r",
          "type": "bytes32"
        },
        {
          "internalType": "bytes32",
          "name": "s",
          "type": "bytes32"
        }
      ],
      "name": "permit",
      "outputs": [],
      "stateMutability": "nonpayable",
      "type": "function"
    },
    {
      "inputs": [
        {
          "internalType": "address",
          "name": "account",
          "type": "address"
        },
        {
          "internalType": "address",
          "name": "incentive",
          "type": "address"
        }
      ],
      "name": "setIncentiveContract",
      "outputs": [],
      "stateMutability": "nonpayable",
      "type": "function"
    },
    {
      "inputs": [],
      "name": "symbol",
      "outputs": [
        {
          "internalType": "string",
          "name": "",
          "type": "string"
        }
      ],
      "stateMutability": "view",
      "type": "function"
    },
    {
      "inputs": [],
      "name": "totalSupply",
      "outputs": [
        {
          "internalType": "uint256",
          "name": "",
          "type": "uint256"
        }
      ],
      "stateMutability": "view",
      "type": "function"
    },
    {
      "inputs": [
        {
          "internalType": "address",
          "name": "recipient",
          "type": "address"
        },
        {
          "internalType": "uint256",
          "name": "amount",
          "type": "uint256"
        }
      ],
      "name": "transfer",
      "outputs": [
        {
          "internalType": "bool",
          "name": "",
          "type": "bool"
        }
      ],
      "stateMutability": "nonpayable",
      "type": "function"
    },
    {
      "inputs": [
        {
          "internalType": "address",
          "name": "sender",
          "type": "address"
        },
        {
          "internalType": "address",
          "name": "recipient",
          "type": "address"
        },
        {
          "internalType": "uint256",
          "name": "amount",
          "type": "uint256"
        }
      ],
      "name": "transferFrom",
      "outputs": [
        {
          "internalType": "bool",
          "name": "",
          "type": "bool"
        }
      ],
      "stateMutability": "nonpayable",
      "type": "function"
    },
    {
      "inputs": [],
      "name": "unpause",
      "outputs": [],
      "stateMutability": "nonpayable",
      "type": "function"
    }
  ],
  "transactionHash": "0x55b2faeaf8e475faf6afc84f643f2de947c34cca39ab00af122e4d9d54dc8f4d",
  "args": [
    "0xf1df21D46921Ca23906c2689b9DA25e63e686934"
  ],
  "solcInputHash": "3a4df42f9b85ea8980018f2e9a7fda32",
  "bytecode": "0x60806040523480156200001157600080fd5b50604051620022b4380380620022b483398101604081905262000034916200042f565b806040518060400160405280601981526020017f5562697175697479416c676f726974686d6963446f6c6c617200000000000000815250604051806040016040528060038152602001621d505160ea1b81525081818160039080519060200190620000a192919062000389565b508051620000b790600490602084019062000389565b5050600580546001600160a81b0319166101006001600160a01b03878116820292909217928390556040805163a217fddf60e01b815290519190930490911692506391d1485491839163a217fddf91600480820192602092909190829003018186803b1580156200012757600080fd5b505afa1580156200013c573d6000803e3d6000fd5b505050506040513d601f19601f8201168201806040525081019062000162919062000481565b6040516001600160e01b031960e084901b168152600481019190915233602482015260440160206040518083038186803b158015620001a057600080fd5b505afa158015620001b5573d6000803e3d6000fd5b505050506040513d601f19601f82011682018060405250810190620001db91906200045f565b620002385760405162461bcd60e51b815260206004820152602360248201527f5541443a206465706c6f796572206d757374206265206d616e6167657220616460448201526236b4b760e91b606482015260840160405180910390fd5b467f8b73c3c69bb8fe3d512ecc4cf759cc79239f7b179b0ffacaa9a75d522b39400f62000264620002ef565b805160209182012060408051808201825260018152603160f81b90840152805192830193909352918101919091527fc89efdaa54c0f20c7adf612882df0950f5a951637e0307cdcb4c672f298b8bc66060820152608081018290523060a082015260c001604051602081830303815290604052805190602001206006819055505050505050620004d7565b60606003805462000300906200049a565b80601f01602080910402602001604051908101604052809291908181526020018280546200032e906200049a565b80156200037f5780601f1062000353576101008083540402835291602001916200037f565b820191906000526020600020905b8154815290600101906020018083116200036157829003601f168201915b5050505050905090565b82805462000397906200049a565b90600052602060002090601f016020900481019282620003bb576000855562000406565b82601f10620003d657805160ff191683800117855562000406565b8280016001018555821562000406579182015b8281111562000406578251825591602001919060010190620003e9565b506200041492915062000418565b5090565b5b8082111562000414576000815560010162000419565b60006020828403121562000441578081fd5b81516001600160a01b038116811462000458578182fd5b9392505050565b60006020828403121562000471578081fd5b8151801515811462000458578182fd5b60006020828403121562000493578081fd5b5051919050565b600181811c90821680620004af57607f821691505b60208210811415620004d157634e487b7160e01b600052602260045260246000fd5b50919050565b611dcd80620004e76000396000f3fe608060405234801561001057600080fd5b50600436106101985760003560e01c80635c975abb116100e3578063a457c2d71161008c578063bc701e7511610066578063bc701e751461034f578063d505accf14610378578063dd62ed3e1461038b57610198565b8063a457c2d714610316578063a9059cbb14610329578063b6232c991461033c57610198565b80637ecebe00116100bd5780637ecebe00146102e65780638456cb591461030657806395d89b411461030e57610198565b80635c975abb146102b557806370a08231146102c057806379cc6790146102d357610198565b80633644e5151161014557806340c10f191161011f57806340c10f191461025f57806342966c6814610272578063481c6a751461028557610198565b80633644e5151461023957806339509351146102425780633f4ba83a1461025557610198565b806323b872dd1161017657806323b872dd146101f057806330adf81f14610203578063313ce5671461022a57610198565b806306fdde031461019d578063095ea7b3146101bb57806318160ddd146101de575b600080fd5b6101a56103c4565b6040516101b29190611cd2565b60405180910390f35b6101ce6101c9366004611c59565b610456565b60405190151581526020016101b2565b6002545b6040519081526020016101b2565b6101ce6101fe366004611bad565b61046c565b6101e27f6e71edae12b1b97f4d1f60370fef10105fa2faae0126114a169c64845d6126c981565b604051601281526020016101b2565b6101e260065481565b6101ce610250366004611c59565b610537565b61025d61056e565b005b61025d61026d366004611c59565b6106c2565b61025d610280366004611cba565b6108a1565b60055461029d9061010090046001600160a01b031681565b6040516001600160a01b0390911681526020016101b2565b60055460ff166101ce565b6101e26102ce366004611b5a565b610928565b61025d6102e1366004611c59565b610947565b6101e26102f4366004611b5a565b60076020526000908152604090205481565b61025d610b28565b6101a5610c7a565b6101ce610324366004611c59565b610c89565b6101ce610337366004611c59565b610d3c565b61025d61034a366004611b7b565b610d49565b61029d61035d366004611b5a565b6008602052600090815260409020546001600160a01b031681565b61025d610386366004611be8565b610f02565b6101e2610399366004611b7b565b6001600160a01b03918216600090815260016020908152604080832093909416825291909152205490565b6060600380546103d390611d54565b80601f01602080910402602001604051908101604052809291908181526020018280546103ff90611d54565b801561044c5780601f106104215761010080835404028352916020019161044c565b820191906000526020600020905b81548152906001019060200180831161042f57829003601f168201915b5050505050905090565b6000610463338484611121565b50600192915050565b6000610479848484611246565b6001600160a01b0384166000908152600160209081526040808320338452909152902054828110156105185760405162461bcd60e51b815260206004820152602860248201527f45524332303a207472616e7366657220616d6f756e742065786365656473206160448201527f6c6c6f77616e636500000000000000000000000000000000000000000000000060648201526084015b60405180910390fd5b61052c85336105278685611d3d565b611121565b506001949350505050565b3360008181526001602090815260408083206001600160a01b03871684529091528120549091610463918590610527908690611d25565b6005546040805163e63ab1e960e01b815290516101009092046001600160a01b0316916391d1485491839163e63ab1e991600480820192602092909190829003018186803b1580156105bf57600080fd5b505afa1580156105d3573d6000803e3d6000fd5b505050506040513d601f19601f820116820180604052508101906105f79190611ca2565b6040516001600160e01b031960e084901b168152600481019190915233602482015260440160206040518083038186803b15801561063457600080fd5b505afa158015610648573d6000803e3d6000fd5b505050506040513d601f19601f8201168201806040525081019061066c9190611c82565b6106b85760405162461bcd60e51b815260206004820152601560248201527f55425120746f6b656e3a206e6f74207061757365720000000000000000000000604482015260640161050f565b6106c0611261565b565b60055460408051632f533cb760e01b815290516101009092046001600160a01b0316916391d14854918391632f533cb791600480820192602092909190829003018186803b15801561071357600080fd5b505afa158015610727573d6000803e3d6000fd5b505050506040513d601f19601f8201168201806040525081019061074b9190611ca2565b6040516001600160e01b031960e084901b168152600481019190915233602482015260440160206040518083038186803b15801561078857600080fd5b505afa15801561079c573d6000803e3d6000fd5b505050506040513d601f19601f820116820180604052508101906107c09190611c82565b61080c5760405162461bcd60e51b815260206004820152601560248201527f55425120746f6b656e3a206e6f74206d696e7465720000000000000000000000604482015260640161050f565b60055460ff16156108525760405162461bcd60e51b815260206004820152601060248201526f14185d5cd8589b194e881c185d5cd95960821b604482015260640161050f565b61085c82826112fd565b60405181815233906001600160a01b038416907fb1233017d63154bc561d57c16f7b6a55e2e1acd7fcac94045a9f35fb31a850ca906020015b60405180910390a35050565b60055460ff16156108e75760405162461bcd60e51b815260206004820152601060248201526f14185d5cd8589b194e881c185d5cd95960821b604482015260640161050f565b6108f0816113e1565b60405181815233907f62626c8ae1f1f3ad3b2f42ba7b806bbc48e9a59dab06414984113eaab612fe479060200160405180910390a250565b6001600160a01b0381166000908152602081905260409020545b919050565b6005546040805163f39e5a4760e01b815290516101009092046001600160a01b0316916391d1485491839163f39e5a4791600480820192602092909190829003018186803b15801561099857600080fd5b505afa1580156109ac573d6000803e3d6000fd5b505050506040513d601f19601f820116820180604052508101906109d09190611ca2565b6040516001600160e01b031960e084901b168152600481019190915233602482015260440160206040518083038186803b158015610a0d57600080fd5b505afa158015610a21573d6000803e3d6000fd5b505050506040513d601f19601f82011682018060405250810190610a459190611c82565b610a915760405162461bcd60e51b815260206004820152601560248201527f55425120746f6b656e3a206e6f74206275726e65720000000000000000000000604482015260640161050f565b60055460ff1615610ad75760405162461bcd60e51b815260206004820152601060248201526f14185d5cd8589b194e881c185d5cd95960821b604482015260640161050f565b610ae182826113ee565b816001600160a01b03167f62626c8ae1f1f3ad3b2f42ba7b806bbc48e9a59dab06414984113eaab612fe4782604051610b1c91815260200190565b60405180910390a25050565b6005546040805163e63ab1e960e01b815290516101009092046001600160a01b0316916391d1485491839163e63ab1e991600480820192602092909190829003018186803b158015610b7957600080fd5b505afa158015610b8d573d6000803e3d6000fd5b505050506040513d601f19601f82011682018060405250810190610bb19190611ca2565b6040516001600160e01b031960e084901b168152600481019190915233602482015260440160206040518083038186803b158015610bee57600080fd5b505afa158015610c02573d6000803e3d6000fd5b505050506040513d601f19601f82011682018060405250810190610c269190611c82565b610c725760405162461bcd60e51b815260206004820152601560248201527f55425120746f6b656e3a206e6f74207061757365720000000000000000000000604482015260640161050f565b6106c0611549565b6060600480546103d390611d54565b3360009081526001602090815260408083206001600160a01b038616845290915281205482811015610d235760405162461bcd60e51b815260206004820152602560248201527f45524332303a2064656372656173656420616c6c6f77616e63652062656c6f7760448201527f207a65726f000000000000000000000000000000000000000000000000000000606482015260840161050f565b610d3233856105278685611d3d565b5060019392505050565b6000610463338484611246565b60055460408051633b4d977360e01b815290516101009092046001600160a01b0316916391d14854918391633b4d977391600480820192602092909190829003018186803b158015610d9a57600080fd5b505afa158015610dae573d6000803e3d6000fd5b505050506040513d601f19601f82011682018060405250810190610dd29190611ca2565b6040516001600160e01b031960e084901b168152600481019190915233602482015260440160206040518083038186803b158015610e0f57600080fd5b505afa158015610e23573d6000803e3d6000fd5b505050506040513d601f19601f82011682018060405250810190610e479190611c82565b610e935760405162461bcd60e51b815260206004820152601960248201527f7541443a206d75737420686176652061646d696e20726f6c6500000000000000604482015260640161050f565b6001600160a01b0382811660008181526008602052604080822080547fffffffffffffffffffffffff0000000000000000000000000000000000000000169486169485179055517f88bb9e877881758e827c849b8a0e38421bd5ff916f4ef79ed65aec74cc04a5da9190a35050565b42841015610f525760405162461bcd60e51b815260206004820152600c60248201527f7541443a20455850495245440000000000000000000000000000000000000000604482015260640161050f565b6006546001600160a01b038816600090815260076020526040812080549192917f6e71edae12b1b97f4d1f60370fef10105fa2faae0126114a169c64845d6126c9918b918b918b919087610fa583611d8f565b909155506040805160208101969096526001600160a01b0394851690860152929091166060840152608083015260a082015260c0810187905260e0016040516020818303038152906040528051906020012060405160200161101e92919061190160f01b81526002810192909252602282015260420190565b60408051601f198184030181528282528051602091820120600080855291840180845281905260ff88169284019290925260608301869052608083018590529092509060019060a0016020604051602081039080840390855afa158015611089573d6000803e3d6000fd5b5050604051601f1901519150506001600160a01b038116158015906110bf5750886001600160a01b0316816001600160a01b0316145b61110b5760405162461bcd60e51b815260206004820152601660248201527f7541443a20494e56414c49445f5349474e415455524500000000000000000000604482015260640161050f565b611116898989611121565b505050505050505050565b6001600160a01b0383166111835760405162461bcd60e51b8152602060048201526024808201527f45524332303a20617070726f76652066726f6d20746865207a65726f206164646044820152637265737360e01b606482015260840161050f565b6001600160a01b0382166111e45760405162461bcd60e51b815260206004820152602260248201527f45524332303a20617070726f766520746f20746865207a65726f206164647265604482015261737360f01b606482015260840161050f565b6001600160a01b0383811660008181526001602090815260408083209487168084529482529182902085905590518481527f8c5be1e5ebec7d5bd14f71427d1e84f3dd0314c0f7b2291e5b200ac8c7c3b92591015b60405180910390a3505050565b6112518383836115c4565b61125c838383611615565b505050565b60055460ff166112b35760405162461bcd60e51b815260206004820152601460248201527f5061757361626c653a206e6f7420706175736564000000000000000000000000604482015260640161050f565b6005805460ff191690557f5db9ee0a495bf2e6ff9c91a7834c1ba4fdd244a5e8aa4e537bd38aeae4b073aa335b6040516001600160a01b03909116815260200160405180910390a1565b6001600160a01b0382166113535760405162461bcd60e51b815260206004820152601f60248201527f45524332303a206d696e7420746f20746865207a65726f206164647265737300604482015260640161050f565b61135f600083836118ad565b80600260008282546113719190611d25565b90915550506001600160a01b0382166000908152602081905260408120805483929061139e908490611d25565b90915550506040518181526001600160a01b038316906000907fddf252ad1be2c89b69c2b068fc378daa952ba7f163c4a11628f55a4df523b3ef90602001610895565b6113eb33826113ee565b50565b6001600160a01b03821661144e5760405162461bcd60e51b815260206004820152602160248201527f45524332303a206275726e2066726f6d20746865207a65726f206164647265736044820152607360f81b606482015260840161050f565b61145a826000836118ad565b6001600160a01b038216600090815260208190526040902054818110156114ce5760405162461bcd60e51b815260206004820152602260248201527f45524332303a206275726e20616d6f756e7420657863656564732062616c616e604482015261636560f01b606482015260840161050f565b6114d88282611d3d565b6001600160a01b03841660009081526020819052604081209190915560028054849290611506908490611d3d565b90915550506040518281526000906001600160a01b038516907fddf252ad1be2c89b69c2b068fc378daa952ba7f163c4a11628f55a4df523b3ef90602001611239565b60055460ff161561158f5760405162461bcd60e51b815260206004820152601060248201526f14185d5cd8589b194e881c185d5cd95960821b604482015260640161050f565b6005805460ff191660011790557f62e78cea01bee320cd4e420270b5ea74000d11b0c9f74754ebdbfc544b05a2586112e03390565b60055460ff161561160a5760405162461bcd60e51b815260206004820152601060248201526f14185d5cd8589b194e881c185d5cd95960821b604482015260640161050f565b61125c8383836118b8565b6001600160a01b038084166000908152600860205260409020541680156116a757604051636e22230d60e01b81526001600160a01b038581166004830152848116602483015233604483015260648201849052821690636e22230d90608401600060405180830381600087803b15801561168e57600080fd5b505af11580156116a2573d6000803e3d6000fd5b505050505b6001600160a01b0380841660009081526008602052604090205416801561173957604051636e22230d60e01b81526001600160a01b038681166004830152858116602483015233604483015260648201859052821690636e22230d90608401600060405180830381600087803b15801561172057600080fd5b505af1158015611734573d6000803e3d6000fd5b505050505b336000818152600860205260409020546001600160a01b03908116919087161480159061176f5750336001600160a01b03861614155b801561178357506001600160a01b03811615155b156117f957604051636e22230d60e01b81526001600160a01b038781166004830152868116602483015233604483015260648201869052821690636e22230d90608401600060405180830381600087803b1580156117e057600080fd5b505af11580156117f4573d6000803e3d6000fd5b505050505b6000805260086020527f5eff886ea0ce6ca488a3d6e336d6c0f75f46d19b42c06ce5ee98e42c96d256c7546001600160a01b031680156118a457604051636e22230d60e01b81526001600160a01b038881166004830152878116602483015233604483015260648201879052821690636e22230d90608401600060405180830381600087803b15801561188b57600080fd5b505af115801561189f573d6000803e3d6000fd5b505050505b50505050505050565b61125c838383611aca565b6001600160a01b0383166119345760405162461bcd60e51b815260206004820152602560248201527f45524332303a207472616e736665722066726f6d20746865207a65726f20616460448201527f6472657373000000000000000000000000000000000000000000000000000000606482015260840161050f565b6001600160a01b0382166119965760405162461bcd60e51b815260206004820152602360248201527f45524332303a207472616e7366657220746f20746865207a65726f206164647260448201526265737360e81b606482015260840161050f565b6119a18383836118ad565b6001600160a01b03831660009081526020819052604090205481811015611a305760405162461bcd60e51b815260206004820152602660248201527f45524332303a207472616e7366657220616d6f756e742065786365656473206260448201527f616c616e63650000000000000000000000000000000000000000000000000000606482015260840161050f565b611a3a8282611d3d565b6001600160a01b038086166000908152602081905260408082209390935590851681529081208054849290611a70908490611d25565b92505081905550826001600160a01b0316846001600160a01b03167fddf252ad1be2c89b69c2b068fc378daa952ba7f163c4a11628f55a4df523b3ef84604051611abc91815260200190565b60405180910390a350505050565b60055460ff161561125c5760405162461bcd60e51b815260206004820152602a60248201527f45524332305061757361626c653a20746f6b656e207472616e7366657220776860448201527f696c652070617573656400000000000000000000000000000000000000000000606482015260840161050f565b80356001600160a01b038116811461094257600080fd5b600060208284031215611b6b578081fd5b611b7482611b43565b9392505050565b60008060408385031215611b8d578081fd5b611b9683611b43565b9150611ba460208401611b43565b90509250929050565b600080600060608486031215611bc1578081fd5b611bca84611b43565b9250611bd860208501611b43565b9150604084013590509250925092565b600080600080600080600060e0888a031215611c02578283fd5b611c0b88611b43565b9650611c1960208901611b43565b95506040880135945060608801359350608088013560ff81168114611c3c578384fd5b9699959850939692959460a0840135945060c09093013592915050565b60008060408385031215611c6b578182fd5b611c7483611b43565b946020939093013593505050565b600060208284031215611c93578081fd5b81518015158114611b74578182fd5b600060208284031215611cb3578081fd5b5051919050565b600060208284031215611ccb578081fd5b5035919050565b6000602080835283518082850152825b81811015611cfe57858101830151858201604001528201611ce2565b81811115611d0f5783604083870101525b50601f01601f1916929092016040019392505050565b60008219821115611d3857611d38611daa565b500190565b600082821015611d4f57611d4f611daa565b500390565b600181811c90821680611d6857607f821691505b60208210811415611d8957634e487b7160e01b600052602260045260246000fd5b50919050565b6000600019821415611da357611da3611daa565b5060010190565b634e487b7160e01b600052601160045260246000fdfea164736f6c6343000803000a",
  "devdoc": {
    "kind": "dev",
    "methods": {
      "allowance(address,address)": {
        "details": "See {IERC20-allowance}."
      },
      "approve(address,uint256)": {
        "details": "See {IERC20-approve}. Requirements: - `spender` cannot be the zero address."
      },
      "balanceOf(address)": {
        "details": "See {IERC20-balanceOf}."
      },
      "burn(uint256)": {
        "params": {
          "amount": "the amount to burn"
        }
      },
      "burnFrom(address,uint256)": {
        "params": {
          "account": "the account to burn from",
          "amount": "the amount to burn"
        }
      },
      "decimals()": {
        "details": "Returns the number of decimals used to get its user representation. For example, if `decimals` equals `2`, a balance of `505` tokens should be displayed to a user as `5,05` (`505 / 10 ** 2`). Tokens usually opt for a value of 18, imitating the relationship between Ether and Wei. This is the value {ERC20} uses, unless this function is overridden; NOTE: This information is only used for _display_ purposes: it in no way affects any of the arithmetic of the contract, including {IERC20-balanceOf} and {IERC20-transfer}."
      },
      "decreaseAllowance(address,uint256)": {
        "details": "Atomically decreases the allowance granted to `spender` by the caller. This is an alternative to {approve} that can be used as a mitigation for problems described in {IERC20-approve}. Emits an {Approval} event indicating the updated allowance. Requirements: - `spender` cannot be the zero address. - `spender` must have allowance for the caller of at least `subtractedValue`."
      },
      "increaseAllowance(address,uint256)": {
        "details": "Atomically increases the allowance granted to `spender` by the caller. This is an alternative to {approve} that can be used as a mitigation for problems described in {IERC20-approve}. Emits an {Approval} event indicating the updated allowance. Requirements: - `spender` cannot be the zero address."
      },
      "name()": {
        "details": "Returns the name of the token."
      },
      "paused()": {
        "details": "Returns true if the contract is paused, and false otherwise."
      },
      "permit(address,address,uint256,uint256,uint8,bytes32,bytes32)": {
        "params": {
          "deadline": "the deadline after which the approval is no longer valid",
          "owner": "the uAD holder",
          "spender": "the approved operator",
          "value": "the amount approved"
        }
      },
      "setIncentiveContract(address,address)": {
        "params": {
          "account": "the account to incentivize",
          "incentive": "the associated incentive contract"
        }
      },
      "symbol()": {
        "details": "Returns the symbol of the token, usually a shorter version of the name."
      },
      "totalSupply()": {
        "details": "See {IERC20-totalSupply}."
      },
      "transfer(address,uint256)": {
        "details": "See {IERC20-transfer}. Requirements: - `recipient` cannot be the zero address. - the caller must have a balance of at least `amount`."
      },
      "transferFrom(address,address,uint256)": {
        "details": "See {IERC20-transferFrom}. Emits an {Approval} event indicating the updated allowance. This is not required by the EIP. See the note at the beginning of {ERC20}. Requirements: - `sender` and `recipient` cannot be the zero address. - `sender` must have a balance of at least `amount`. - the caller must have allowance for ``sender``'s tokens of at least `amount`."
      }
    },
    "version": 1
  },
  "userdoc": {
    "kind": "user",
    "methods": {
      "burn(uint256)": {
        "notice": "burn UAD tokens from caller"
      },
      "burnFrom(address,uint256)": {
        "notice": "burn uAD tokens from specified account"
      },
      "incentiveContract(address)": {
        "notice": "get associated incentive contract, 0 address if N/A"
      },
      "permit(address,address,uint256,uint256,uint8,bytes32,bytes32)": {
        "notice": "permit spending of uAD. owner has signed a message allowing         spender to transfer up to amount uAD"
      },
      "setIncentiveContract(address,address)": {
        "notice": "only UAD manager can set Incentive contract"
      }
    },
    "version": 1
  },
  "storageLayout": {
    "storage": [
      {
        "astId": 1803,
        "contract": "contracts/UbiquityAlgorithmicDollar.sol:UbiquityAlgorithmicDollar",
        "label": "_balances",
        "offset": 0,
        "slot": "0",
        "type": "t_mapping(t_address,t_uint256)"
      },
      {
        "astId": 1809,
        "contract": "contracts/UbiquityAlgorithmicDollar.sol:UbiquityAlgorithmicDollar",
        "label": "_allowances",
        "offset": 0,
        "slot": "1",
        "type": "t_mapping(t_address,t_mapping(t_address,t_uint256))"
      },
      {
        "astId": 1811,
        "contract": "contracts/UbiquityAlgorithmicDollar.sol:UbiquityAlgorithmicDollar",
        "label": "_totalSupply",
        "offset": 0,
        "slot": "2",
        "type": "t_uint256"
      },
      {
        "astId": 1813,
        "contract": "contracts/UbiquityAlgorithmicDollar.sol:UbiquityAlgorithmicDollar",
        "label": "_name",
        "offset": 0,
        "slot": "3",
        "type": "t_string_storage"
      },
      {
        "astId": 1815,
        "contract": "contracts/UbiquityAlgorithmicDollar.sol:UbiquityAlgorithmicDollar",
        "label": "_symbol",
        "offset": 0,
        "slot": "4",
        "type": "t_string_storage"
      },
      {
        "astId": 385,
        "contract": "contracts/UbiquityAlgorithmicDollar.sol:UbiquityAlgorithmicDollar",
        "label": "_paused",
        "offset": 0,
        "slot": "5",
        "type": "t_bool"
      },
      {
        "astId": 7624,
        "contract": "contracts/UbiquityAlgorithmicDollar.sol:UbiquityAlgorithmicDollar",
        "label": "manager",
        "offset": 1,
        "slot": "5",
        "type": "t_contract(UbiquityAlgorithmicDollarManager)10271"
      },
      {
        "astId": 7626,
        "contract": "contracts/UbiquityAlgorithmicDollar.sol:UbiquityAlgorithmicDollar",
        "label": "DOMAIN_SEPARATOR",
        "offset": 0,
        "slot": "6",
        "type": "t_bytes32"
      },
      {
        "astId": 7633,
        "contract": "contracts/UbiquityAlgorithmicDollar.sol:UbiquityAlgorithmicDollar",
        "label": "nonces",
        "offset": 0,
        "slot": "7",
        "type": "t_mapping(t_address,t_uint256)"
      },
      {
        "astId": 9523,
        "contract": "contracts/UbiquityAlgorithmicDollar.sol:UbiquityAlgorithmicDollar",
        "label": "incentiveContract",
        "offset": 0,
        "slot": "8",
        "type": "t_mapping(t_address,t_address)"
      }
    ],
    "types": {
      "t_address": {
        "encoding": "inplace",
        "label": "address",
        "numberOfBytes": "20"
      },
      "t_bool": {
        "encoding": "inplace",
        "label": "bool",
        "numberOfBytes": "1"
      },
      "t_bytes32": {
        "encoding": "inplace",
        "label": "bytes32",
        "numberOfBytes": "32"
      },
      "t_contract(UbiquityAlgorithmicDollarManager)10271": {
        "encoding": "inplace",
        "label": "contract UbiquityAlgorithmicDollarManager",
        "numberOfBytes": "20"
      },
      "t_mapping(t_address,t_address)": {
        "encoding": "mapping",
        "key": "t_address",
        "label": "mapping(address => address)",
        "numberOfBytes": "32",
        "value": "t_address"
      },
      "t_mapping(t_address,t_mapping(t_address,t_uint256))": {
        "encoding": "mapping",
        "key": "t_address",
        "label": "mapping(address => mapping(address => uint256))",
        "numberOfBytes": "32",
        "value": "t_mapping(t_address,t_uint256)"
      },
      "t_mapping(t_address,t_uint256)": {
        "encoding": "mapping",
        "key": "t_address",
        "label": "mapping(address => uint256)",
        "numberOfBytes": "32",
        "value": "t_uint256"
      },
      "t_string_storage": {
        "encoding": "bytes",
        "label": "string",
        "numberOfBytes": "32"
      },
      "t_uint256": {
        "encoding": "inplace",
        "label": "uint256",
        "numberOfBytes": "32"
      }
    }
  }
}