{
  "address": "0x3382E6344edab069886ee79719ffBC72F4E54777",
  "abi": [
    {
      "inputs": [
        {
          "internalType": "address",
          "name": "_config",
          "type": "address"
        }
      ],
      "stateMutability": "nonpayable",
      "type": "constructor"
    },
    {
      "anonymous": false,
      "inputs": [
        {
          "indexed": false,
          "internalType": "address",
          "name": "_to",
          "type": "address"
        },
        {
          "indexed": false,
          "internalType": "address",
          "name": "token",
          "type": "address"
        },
        {
          "indexed": false,
          "internalType": "uint256",
          "name": "amount",
          "type": "uint256"
        }
      ],
      "name": "DustSent",
      "type": "event"
    },
    {
      "anonymous": false,
      "inputs": [
        {
          "indexed": false,
          "internalType": "address",
          "name": "_token",
          "type": "address"
        }
      ],
      "name": "ProtocolTokenAdded",
      "type": "event"
    },
    {
      "anonymous": false,
      "inputs": [
        {
          "indexed": false,
          "internalType": "address",
          "name": "_token",
          "type": "address"
        }
      ],
      "name": "ProtocolTokenRemoved",
      "type": "event"
    },
    {
      "inputs": [],
      "name": "ETH_ADDRESS",
      "outputs": [
        {
          "internalType": "address",
          "name": "",
          "type": "address"
        }
      ],
      "stateMutability": "view",
      "type": "function"
    },
    {
      "inputs": [],
      "name": "TARGET_PRICE",
      "outputs": [
        {
          "internalType": "uint256",
          "name": "",
          "type": "uint256"
        }
      ],
      "stateMutability": "view",
      "type": "function"
    },
    {
      "inputs": [
        {
          "internalType": "address",
          "name": "_token",
          "type": "address"
        }
      ],
      "name": "addProtocolToken",
      "outputs": [],
      "stateMutability": "nonpayable",
      "type": "function"
    },
    {
      "inputs": [],
      "name": "bondingDiscountMultiplier",
      "outputs": [
        {
          "internalType": "uint256",
          "name": "",
          "type": "uint256"
        }
      ],
      "stateMutability": "view",
      "type": "function"
    },
    {
      "inputs": [],
      "name": "config",
      "outputs": [
        {
          "internalType": "contract StabilitasConfig",
          "name": "",
          "type": "address"
        }
      ],
      "stateMutability": "view",
      "type": "function"
    },
    {
      "inputs": [],
      "name": "maxBondingPrice",
      "outputs": [
        {
          "internalType": "uint256",
          "name": "",
          "type": "uint256"
        }
      ],
      "stateMutability": "view",
      "type": "function"
    },
    {
      "inputs": [],
      "name": "redeemStreamTime",
      "outputs": [
        {
          "internalType": "uint256",
          "name": "",
          "type": "uint256"
        }
      ],
      "stateMutability": "view",
      "type": "function"
    },
    {
      "inputs": [
        {
          "internalType": "address",
          "name": "_token",
          "type": "address"
        }
      ],
      "name": "removeProtocolToken",
      "outputs": [],
      "stateMutability": "nonpayable",
      "type": "function"
    },
    {
      "inputs": [],
      "name": "rewardsBalance",
      "outputs": [
        {
          "internalType": "uint256",
          "name": "",
          "type": "uint256"
        }
      ],
      "stateMutability": "view",
      "type": "function"
    },
    {
      "inputs": [],
      "name": "sablier",
      "outputs": [
        {
          "internalType": "contract ISablier",
          "name": "",
          "type": "address"
        }
      ],
      "stateMutability": "view",
      "type": "function"
    },
    {
      "inputs": [
        {
          "internalType": "address",
          "name": "_to",
          "type": "address"
        },
        {
          "internalType": "address",
          "name": "_token",
          "type": "address"
        },
        {
          "internalType": "uint256",
          "name": "_amount",
          "type": "uint256"
        }
      ],
      "name": "sendDust",
      "outputs": [],
      "stateMutability": "nonpayable",
      "type": "function"
    },
    {
      "stateMutability": "payable",
      "type": "receive"
    }
  ],
  "transactionHash": "0xdf8ddb6a7c0b096ad429f1083fb1572e5b6cee35fd4a80475187c57e7b481521",
  "args": [
    "0xF2f52F9fca998D225eD7e7038534397De5341B20"
  ],
  "solcInputHash": "c48f45a4cfaa36efea052257365f78fc",
  "bytecode": "0x608060405269d3c21bcecceda1000000600455600060055562093a8060075534801561002a57600080fd5b506040516115723803806115728339818101604052602081101561004d57600080fd5b810190808051906020019092919050505080600260006101000a81548173ffffffffffffffffffffffffffffffffffffffff021916908373ffffffffffffffffffffffffffffffffffffffff160217905550506114c3806100af6000396000f3fe6080604052600436106100a05760003560e01c80637e99ce59116100645780637e99ce59146101ff5780638f88f38d1461022a578063a734f06e14610255578063bf0d68e414610296578063e8a8fad5146102e7578063fa3305c914610312576100a7565b8063131f2e53146100ac5780631964e273146100d75780632db8c12914610102578063482879aa1461017d57806379502c55146101be576100a7565b366100a757005b600080fd5b3480156100b857600080fd5b506100c1610363565b6040518082815260200191505060405180910390f35b3480156100e357600080fd5b506100ec610369565b6040518082815260200191505060405180910390f35b34801561010e57600080fd5b5061017b6004803603606081101561012557600080fd5b81019080803573ffffffffffffffffffffffffffffffffffffffff169060200190929190803573ffffffffffffffffffffffffffffffffffffffff1690602001909291908035906020019092919050505061036f565b005b34801561018957600080fd5b5061019261055f565b604051808273ffffffffffffffffffffffffffffffffffffffff16815260200191505060405180910390f35b3480156101ca57600080fd5b506101d3610585565b604051808273ffffffffffffffffffffffffffffffffffffffff16815260200191505060405180910390f35b34801561020b57600080fd5b506102146105ab565b6040518082815260200191505060405180910390f35b34801561023657600080fd5b5061023f6105b2565b6040518082815260200191505060405180910390f35b34801561026157600080fd5b5061026a6105b8565b604051808273ffffffffffffffffffffffffffffffffffffffff16815260200191505060405180910390f35b3480156102a257600080fd5b506102e5600480360360208110156102b957600080fd5b81019080803573ffffffffffffffffffffffffffffffffffffffff1690602001909291905050506105d0565b005b3480156102f357600080fd5b506102fc6107bc565b6040518082815260200191505060405180910390f35b34801561031e57600080fd5b506103616004803603602081101561033557600080fd5b81019080803573ffffffffffffffffffffffffffffffffffffffff1690602001909291905050506107c2565b005b60065481565b60045481565b600260009054906101000a900473ffffffffffffffffffffffffffffffffffffffff1673ffffffffffffffffffffffffffffffffffffffff166391d14854600260009054906101000a900473ffffffffffffffffffffffffffffffffffffffff1673ffffffffffffffffffffffffffffffffffffffff1663e6c735406040518163ffffffff1660e01b815260040160206040518083038186803b15801561041557600080fd5b505afa158015610429573d6000803e3d6000fd5b505050506040513d602081101561043f57600080fd5b8101908080519060200190929190505050336040518363ffffffff1660e01b8152600401808381526020018273ffffffffffffffffffffffffffffffffffffffff1681526020019250505060206040518083038186803b1580156104a257600080fd5b505afa1580156104b6573d6000803e3d6000fd5b505050506040513d60208110156104cc57600080fd5b810190808051906020019092919050505061054f576040517f08c379a000000000000000000000000000000000000000000000000000000000815260040180806020018281038252601f8152602001807f43616c6c6572206973206e6f74206120626f6e64696e67206d616e616765720081525060200191505060405180910390fd5b61055a8383836109ae565b505050565b600360009054906101000a900473ffffffffffffffffffffffffffffffffffffffff1681565b600260009054906101000a900473ffffffffffffffffffffffffffffffffffffffff1681565b620f424081565b60055481565b73eeeeeeeeeeeeeeeeeeeeeeeeeeeeeeeeeeeeeeee81565b600260009054906101000a900473ffffffffffffffffffffffffffffffffffffffff1673ffffffffffffffffffffffffffffffffffffffff166391d14854600260009054906101000a900473ffffffffffffffffffffffffffffffffffffffff1673ffffffffffffffffffffffffffffffffffffffff1663e6c735406040518163ffffffff1660e01b815260040160206040518083038186803b15801561067657600080fd5b505afa15801561068a573d6000803e3d6000fd5b505050506040513d60208110156106a057600080fd5b8101908080519060200190929190505050336040518363ffffffff1660e01b8152600401808381526020018273ffffffffffffffffffffffffffffffffffffffff1681526020019250505060206040518083038186803b15801561070357600080fd5b505afa158015610717573d6000803e3d6000fd5b505050506040513d602081101561072d57600080fd5b81019080805190602001909291905050506107b0576040517f08c379a000000000000000000000000000000000000000000000000000000000815260040180806020018281038252601f8152602001807f43616c6c6572206973206e6f74206120626f6e64696e67206d616e616765720081525060200191505060405180910390fd5b6107b981610bd6565b50565b60075481565b600260009054906101000a900473ffffffffffffffffffffffffffffffffffffffff1673ffffffffffffffffffffffffffffffffffffffff166391d14854600260009054906101000a900473ffffffffffffffffffffffffffffffffffffffff1673ffffffffffffffffffffffffffffffffffffffff1663e6c735406040518163ffffffff1660e01b815260040160206040518083038186803b15801561086857600080fd5b505afa15801561087c573d6000803e3d6000fd5b505050506040513d602081101561089257600080fd5b8101908080519060200190929190505050336040518363ffffffff1660e01b8152600401808381526020018273ffffffffffffffffffffffffffffffffffffffff1681526020019250505060206040518083038186803b1580156108f557600080fd5b505afa158015610909573d6000803e3d6000fd5b505050506040513d602081101561091f57600080fd5b81019080805190602001909291905050506109a2576040517f08c379a000000000000000000000000000000000000000000000000000000000815260040180806020018281038252601f8152602001807f43616c6c6572206973206e6f74206120626f6e64696e67206d616e616765720081525060200191505060405180910390fd5b6109ab81610ca4565b50565b600073ffffffffffffffffffffffffffffffffffffffff168373ffffffffffffffffffffffffffffffffffffffff161415610a34576040517f08c379a00000000000000000000000000000000000000000000000000000000081526004018080602001828103825260308152602001806114346030913960400191505060405180910390fd5b610a48826000610d7390919063ffffffff16565b15610a9e576040517f08c379a000000000000000000000000000000000000000000000000000000000815260040180806020018281038252602f8152602001806113af602f913960400191505060405180910390fd5b73eeeeeeeeeeeeeeeeeeeeeeeeeeeeeeeeeeeeeeee73ffffffffffffffffffffffffffffffffffffffff168273ffffffffffffffffffffffffffffffffffffffff161415610b32578273ffffffffffffffffffffffffffffffffffffffff166108fc829081150290604051600060405180830381858888f19350505050158015610b2c573d6000803e3d6000fd5b50610b5e565b610b5d83828473ffffffffffffffffffffffffffffffffffffffff16610da39092919063ffffffff16565b5b7f1e34c1aee8e83c2dcc14c21bb4bfeea7f46c0c998cb797ac7cc4d7a18f5c656b838383604051808473ffffffffffffffffffffffffffffffffffffffff1681526020018373ffffffffffffffffffffffffffffffffffffffff168152602001828152602001935050505060405180910390a1505050565b610bea816000610d7390919063ffffffff16565b610c3f576040517f08c379a00000000000000000000000000000000000000000000000000000000081526004018080602001828103825260308152602001806113de6030913960400191505060405180910390fd5b610c53816000610e4590919063ffffffff16565b507fddd12a8c3ce9bea5c97a5d25c8b777caab85752828f56b7b8ad5a0b30340a25f81604051808273ffffffffffffffffffffffffffffffffffffffff16815260200191505060405180910390a150565b610cb8816000610d7390919063ffffffff16565b15610d0e576040517f08c379a000000000000000000000000000000000000000000000000000000000815260040180806020018281038252602f8152602001806113af602f913960400191505060405180910390fd5b610d22816000610e7590919063ffffffff16565b507fa3e4ba856dd0fdee3a33ab9b82499fd01f05236f3d08cc4e7108698c6e3e7e5081604051808273ffffffffffffffffffffffffffffffffffffffff16815260200191505060405180910390a150565b6000610d9b836000018373ffffffffffffffffffffffffffffffffffffffff1660001b610ea5565b905092915050565b610e408363a9059cbb60e01b8484604051602401808373ffffffffffffffffffffffffffffffffffffffff16815260200182815260200192505050604051602081830303815290604052907bffffffffffffffffffffffffffffffffffffffffffffffffffffffff19166020820180517bffffffffffffffffffffffffffffffffffffffffffffffffffffffff8381831617835250505050610ec8565b505050565b6000610e6d836000018373ffffffffffffffffffffffffffffffffffffffff1660001b610fb7565b905092915050565b6000610e9d836000018373ffffffffffffffffffffffffffffffffffffffff1660001b61109f565b905092915050565b600080836001016000848152602001908152602001600020541415905092915050565b6000610f2a826040518060400160405280602081526020017f5361666545524332303a206c6f772d6c6576656c2063616c6c206661696c65648152508573ffffffffffffffffffffffffffffffffffffffff1661110f9092919063ffffffff16565b9050600081511115610fb257808060200190516020811015610f4b57600080fd5b8101908080519060200190929190505050610fb1576040517f08c379a000000000000000000000000000000000000000000000000000000000815260040180806020018281038252602a815260200180611464602a913960400191505060405180910390fd5b5b505050565b60008083600101600084815260200190815260200160002054905060008114611093576000600182039050600060018660000180549050039050600086600001828154811061100257fe5b906000526020600020015490508087600001848154811061101f57fe5b906000526020600020018190555060018301876001016000838152602001908152602001600020819055508660000180548061105757fe5b60019003818190600052602060002001600090559055866001016000878152602001908152602001600020600090556001945050505050611099565b60009150505b92915050565b60006110ab8383610ea5565b611104578260000182908060018154018082558091505060019003906000526020600020016000909190919091505582600001805490508360010160008481526020019081526020016000208190555060019050611109565b600090505b92915050565b606061111e8484600085611127565b90509392505050565b606082471015611182576040517f08c379a000000000000000000000000000000000000000000000000000000000815260040180806020018281038252602681526020018061140e6026913960400191505060405180910390fd5b61118b856112cf565b6111fd576040517f08c379a000000000000000000000000000000000000000000000000000000000815260040180806020018281038252601d8152602001807f416464726573733a2063616c6c20746f206e6f6e2d636f6e747261637400000081525060200191505060405180910390fd5b6000808673ffffffffffffffffffffffffffffffffffffffff1685876040518082805190602001908083835b6020831061124c5780518252602082019150602081019050602083039250611229565b6001836020036101000a03801982511681845116808217855250505050505090500191505060006040518083038185875af1925050503d80600081146112ae576040519150601f19603f3d011682016040523d82523d6000602084013e6112b3565b606091505b50915091506112c38282866112e2565b92505050949350505050565b600080823b905060008111915050919050565b606083156112f2578290506113a7565b6000835111156113055782518084602001fd5b816040517f08c379a00000000000000000000000000000000000000000000000000000000081526004018080602001828103825283818151815260200191508051906020019080838360005b8381101561136c578082015181840152602081019050611351565b50505050905090810190601f1680156113995780820380516001836020036101000a031916815260200191505b509250505060405180910390fd5b939250505056fe636f6c6c65637461626c652d647573743a3a746f6b656e2d69732d706172742d6f662d7468652d70726f746f636f6c636f6c6c65637461626c652d647573743a3a746f6b656e2d6e6f742d706172742d6f662d7468652d70726f746f636f6c416464726573733a20696e73756666696369656e742062616c616e636520666f722063616c6c636f6c6c65637461626c652d647573743a3a63616e742d73656e642d647573742d746f2d7a65726f2d616464726573735361666545524332303a204552433230206f7065726174696f6e20646964206e6f742073756363656564a2646970667358221220cbf995d595b5f7f759e4474b0bc27b0e991ea4f6967d37d968b04a1636c7db3d64736f6c63430007060033",
  "devdoc": {
    "kind": "dev",
    "methods": {},
    "version": 1
  },
  "userdoc": {
    "kind": "user",
    "methods": {
      "addProtocolToken(address)": {
        "notice": "Collectable Dust"
      }
    },
    "version": 1
  },
  "storageLayout": {
    "storage": [
      {
        "astId": 2232,
        "contract": "contracts/Bonding.sol:Bonding",
        "label": "_protocolTokens",
        "offset": 0,
        "slot": "0",
        "type": "t_struct(AddressSet)1312_storage"
      },
      {
        "astId": 1532,
        "contract": "contracts/Bonding.sol:Bonding",
        "label": "config",
        "offset": 0,
        "slot": "2",
        "type": "t_contract(StabilitasConfig)1869"
      },
      {
        "astId": 1537,
        "contract": "contracts/Bonding.sol:Bonding",
        "label": "sablier",
        "offset": 0,
        "slot": "3",
        "type": "t_contract(ISablier)2174"
      },
      {
        "astId": 1540,
        "contract": "contracts/Bonding.sol:Bonding",
        "label": "maxBondingPrice",
        "offset": 0,
        "slot": "4",
        "type": "t_uint256"
      },
      {
        "astId": 1543,
        "contract": "contracts/Bonding.sol:Bonding",
        "label": "bondingDiscountMultiplier",
        "offset": 0,
        "slot": "5",
        "type": "t_uint256"
      },
      {
        "astId": 1545,
        "contract": "contracts/Bonding.sol:Bonding",
        "label": "rewardsBalance",
        "offset": 0,
        "slot": "6",
        "type": "t_uint256"
      },
      {
        "astId": 1548,
        "contract": "contracts/Bonding.sol:Bonding",
        "label": "redeemStreamTime",
        "offset": 0,
        "slot": "7",
        "type": "t_uint256"
      }
    ],
    "types": {
      "t_array(t_bytes32)dyn_storage": {
        "base": "t_bytes32",
        "encoding": "dynamic_array",
        "label": "bytes32[]",
        "numberOfBytes": "32"
      },
      "t_bytes32": {
        "encoding": "inplace",
        "label": "bytes32",
        "numberOfBytes": "32"
      },
      "t_contract(ISablier)2174": {
        "encoding": "inplace",
        "label": "contract ISablier",
        "numberOfBytes": "20"
      },
      "t_contract(StabilitasConfig)1869": {
        "encoding": "inplace",
        "label": "contract StabilitasConfig",
        "numberOfBytes": "20"
      },
      "t_mapping(t_bytes32,t_uint256)": {
        "encoding": "mapping",
        "key": "t_bytes32",
        "label": "mapping(bytes32 => uint256)",
        "numberOfBytes": "32",
        "value": "t_uint256"
      },
      "t_struct(AddressSet)1312_storage": {
        "encoding": "inplace",
        "label": "struct EnumerableSet.AddressSet",
        "members": [
          {
            "astId": 1311,
            "contract": "contracts/Bonding.sol:Bonding",
            "label": "_inner",
            "offset": 0,
            "slot": "0",
            "type": "t_struct(Set)1047_storage"
          }
        ],
        "numberOfBytes": "64"
      },
      "t_struct(Set)1047_storage": {
        "encoding": "inplace",
        "label": "struct EnumerableSet.Set",
        "members": [
          {
            "astId": 1042,
            "contract": "contracts/Bonding.sol:Bonding",
            "label": "_values",
            "offset": 0,
            "slot": "0",
            "type": "t_array(t_bytes32)dyn_storage"
          },
          {
            "astId": 1046,
            "contract": "contracts/Bonding.sol:Bonding",
            "label": "_indexes",
            "offset": 0,
            "slot": "1",
            "type": "t_mapping(t_bytes32,t_uint256)"
          }
        ],
        "numberOfBytes": "64"
      },
      "t_uint256": {
        "encoding": "inplace",
        "label": "uint256",
        "numberOfBytes": "32"
      }
    }
  }
}