{
  "address": "0xF2f52F9fca998D225eD7e7038534397De5341B20",
  "abi": [
    {
      "inputs": [
        {
          "internalType": "address",
          "name": "_admin",
          "type": "address"
        },
        {
          "internalType": "address",
          "name": "_sablier",
          "type": "address"
        }
      ],
      "stateMutability": "nonpayable",
      "type": "constructor"
    },
    {
      "anonymous": false,
      "inputs": [
        {
          "indexed": true,
          "internalType": "bytes32",
          "name": "role",
          "type": "bytes32"
        },
        {
          "indexed": true,
          "internalType": "bytes32",
          "name": "previousAdminRole",
          "type": "bytes32"
        },
        {
          "indexed": true,
          "internalType": "bytes32",
          "name": "newAdminRole",
          "type": "bytes32"
        }
      ],
      "name": "RoleAdminChanged",
      "type": "event"
    },
    {
      "anonymous": false,
      "inputs": [
        {
          "indexed": true,
          "internalType": "bytes32",
          "name": "role",
          "type": "bytes32"
        },
        {
          "indexed": true,
          "internalType": "address",
          "name": "account",
          "type": "address"
        },
        {
          "indexed": true,
          "internalType": "address",
          "name": "sender",
          "type": "address"
        }
      ],
      "name": "RoleGranted",
      "type": "event"
    },
    {
      "anonymous": false,
      "inputs": [
        {
          "indexed": true,
          "internalType": "bytes32",
          "name": "role",
          "type": "bytes32"
        },
        {
          "indexed": true,
          "internalType": "address",
          "name": "account",
          "type": "address"
        },
        {
          "indexed": true,
          "internalType": "address",
          "name": "sender",
          "type": "address"
        }
      ],
      "name": "RoleRevoked",
      "type": "event"
    },
    {
      "inputs": [],
      "name": "BONDING_MANAGER_ROLE",
      "outputs": [
        {
          "internalType": "bytes32",
          "name": "",
          "type": "bytes32"
        }
      ],
      "stateMutability": "view",
      "type": "function"
    },
    {
      "inputs": [],
      "name": "COUPON_MANAGER_ROLE",
      "outputs": [
        {
          "internalType": "bytes32",
          "name": "",
          "type": "bytes32"
        }
      ],
      "stateMutability": "view",
      "type": "function"
    },
    {
      "inputs": [],
      "name": "DEFAULT_ADMIN_ROLE",
      "outputs": [
        {
          "internalType": "bytes32",
          "name": "",
          "type": "bytes32"
        }
      ],
      "stateMutability": "view",
      "type": "function"
    },
    {
      "inputs": [],
      "name": "comparisonTokenAddress",
      "outputs": [
        {
          "internalType": "address",
          "name": "",
          "type": "address"
        }
      ],
      "stateMutability": "view",
      "type": "function"
    },
    {
      "inputs": [],
      "name": "couponCalculatorAddress",
      "outputs": [
        {
          "internalType": "address",
          "name": "",
          "type": "address"
        }
      ],
      "stateMutability": "view",
      "type": "function"
    },
    {
      "inputs": [],
      "name": "debtCouponAddress",
      "outputs": [
        {
          "internalType": "address",
          "name": "",
          "type": "address"
        }
      ],
      "stateMutability": "view",
      "type": "function"
    },
    {
      "inputs": [],
      "name": "dollarCalculatorAddress",
      "outputs": [
        {
          "internalType": "address",
          "name": "",
          "type": "address"
        }
      ],
      "stateMutability": "view",
      "type": "function"
    },
    {
      "inputs": [
        {
          "internalType": "address",
          "name": "debtCouponManagerAddress",
          "type": "address"
        }
      ],
      "name": "getExcessDollarsDistributor",
      "outputs": [
        {
          "internalType": "address",
          "name": "",
          "type": "address"
        }
      ],
      "stateMutability": "view",
      "type": "function"
    },
    {
      "inputs": [
        {
          "internalType": "bytes32",
          "name": "role",
          "type": "bytes32"
        }
      ],
      "name": "getRoleAdmin",
      "outputs": [
        {
          "internalType": "bytes32",
          "name": "",
          "type": "bytes32"
        }
      ],
      "stateMutability": "view",
      "type": "function"
    },
    {
      "inputs": [
        {
          "internalType": "bytes32",
          "name": "role",
          "type": "bytes32"
        },
        {
          "internalType": "uint256",
          "name": "index",
          "type": "uint256"
        }
      ],
      "name": "getRoleMember",
      "outputs": [
        {
          "internalType": "address",
          "name": "",
          "type": "address"
        }
      ],
      "stateMutability": "view",
      "type": "function"
    },
    {
      "inputs": [
        {
          "internalType": "bytes32",
          "name": "role",
          "type": "bytes32"
        }
      ],
      "name": "getRoleMemberCount",
      "outputs": [
        {
          "internalType": "uint256",
          "name": "",
          "type": "uint256"
        }
      ],
      "stateMutability": "view",
      "type": "function"
    },
    {
      "inputs": [
        {
          "internalType": "bytes32",
          "name": "role",
          "type": "bytes32"
        },
        {
          "internalType": "address",
          "name": "account",
          "type": "address"
        }
      ],
      "name": "grantRole",
      "outputs": [],
      "stateMutability": "nonpayable",
      "type": "function"
    },
    {
      "inputs": [
        {
          "internalType": "bytes32",
          "name": "role",
          "type": "bytes32"
        },
        {
          "internalType": "address",
          "name": "account",
          "type": "address"
        }
      ],
      "name": "hasRole",
      "outputs": [
        {
          "internalType": "bool",
          "name": "",
          "type": "bool"
        }
      ],
      "stateMutability": "view",
      "type": "function"
    },
    {
      "inputs": [
        {
          "internalType": "bytes32",
          "name": "role",
          "type": "bytes32"
        },
        {
          "internalType": "address",
          "name": "account",
          "type": "address"
        }
      ],
      "name": "renounceRole",
      "outputs": [],
      "stateMutability": "nonpayable",
      "type": "function"
    },
    {
      "inputs": [
        {
          "internalType": "bytes32",
          "name": "role",
          "type": "bytes32"
        },
        {
          "internalType": "address",
          "name": "account",
          "type": "address"
        }
      ],
      "name": "revokeRole",
      "outputs": [],
      "stateMutability": "nonpayable",
      "type": "function"
    },
    {
      "inputs": [],
      "name": "sablier",
      "outputs": [
        {
          "internalType": "address",
          "name": "",
          "type": "address"
        }
      ],
      "stateMutability": "view",
      "type": "function"
    },
    {
      "inputs": [
        {
          "internalType": "address",
          "name": "_comparisonTokenAddress",
          "type": "address"
        }
      ],
      "name": "setComparisonTokenAddress",
      "outputs": [],
      "stateMutability": "nonpayable",
      "type": "function"
    },
    {
      "inputs": [
        {
          "internalType": "address",
          "name": "_couponCalculatorAddress",
          "type": "address"
        }
      ],
      "name": "setCouponCalculatorAddress",
      "outputs": [],
      "stateMutability": "nonpayable",
      "type": "function"
    },
    {
      "inputs": [
        {
          "internalType": "address",
          "name": "_debtCouponAddress",
          "type": "address"
        }
      ],
      "name": "setDebtCouponAddress",
      "outputs": [],
      "stateMutability": "nonpayable",
      "type": "function"
    },
    {
      "inputs": [
        {
          "internalType": "address",
          "name": "_dollarCalculatorAddress",
          "type": "address"
        }
      ],
      "name": "setDollarCalculatorAddress",
      "outputs": [],
      "stateMutability": "nonpayable",
      "type": "function"
    },
    {
      "inputs": [
        {
          "internalType": "address",
          "name": "debtCouponManagerAddress",
          "type": "address"
        },
        {
          "internalType": "address",
          "name": "excessCouponDistributor",
          "type": "address"
        }
      ],
      "name": "setExcessDollarsDistributor",
      "outputs": [],
      "stateMutability": "nonpayable",
      "type": "function"
    },
    {
      "inputs": [
        {
          "internalType": "address",
          "name": "_sablier",
          "type": "address"
        }
      ],
      "name": "setSablier",
      "outputs": [],
      "stateMutability": "nonpayable",
      "type": "function"
    },
    {
      "inputs": [
        {
          "internalType": "address",
          "name": "_stabilitasTokenAddress",
          "type": "address"
        }
      ],
      "name": "setStabilitasTokenAddress",
      "outputs": [],
      "stateMutability": "nonpayable",
      "type": "function"
    },
    {
      "inputs": [
        {
          "internalType": "address",
          "name": "_twapOracleAddress",
          "type": "address"
        }
      ],
      "name": "setTwapOracleAddress",
      "outputs": [],
      "stateMutability": "nonpayable",
      "type": "function"
    },
    {
      "inputs": [],
      "name": "stabilitasTokenAddress",
      "outputs": [
        {
          "internalType": "address",
          "name": "",
          "type": "address"
        }
      ],
      "stateMutability": "view",
      "type": "function"
    },
    {
      "inputs": [],
      "name": "twapOracleAddress",
      "outputs": [
        {
          "internalType": "address",
          "name": "",
          "type": "address"
        }
      ],
      "stateMutability": "view",
      "type": "function"
    }
  ],
  "transactionHash": "0xb151f1eb383cddf5740f204e5309c9a39e814dc781958a48f6b12ea1704686fc",
  "args": [
    "0x9747267eb0a350F978Da291a8Aa16c9A996f6366",
    "0xA4fc358455Febe425536fd1878bE67FfDBDEC59a"
  ],
  "solcInputHash": "c48f45a4cfaa36efea052257365f78fc",
  "bytecode": "0x60806040523480156200001157600080fd5b506040516200191c3803806200191c833981810160405281019062000037919062000274565b6200004c6000801b83620000c760201b60201c565b6200007e7fb59de930ba65d9ac0d4dbd09127a305101a071683af551ffece1d125909542d883620000c760201b60201c565b80600760006101000a81548173ffffffffffffffffffffffffffffffffffffffff021916908373ffffffffffffffffffffffffffffffffffffffff160217905550505062000303565b620000d98282620000dd60201b60201c565b5050565b6200010b816000808581526020019081526020016000206000016200018060201b62000dd21790919060201c565b156200017c5762000121620001b860201b60201c565b73ffffffffffffffffffffffffffffffffffffffff168173ffffffffffffffffffffffffffffffffffffffff16837f2f8788117e7eff1d82e926ec794901d17c78024a50270940304540a733656f0d60405160405180910390a45b5050565b6000620001b0836000018373ffffffffffffffffffffffffffffffffffffffff1660001b620001c060201b60201c565b905092915050565b600033905090565b6000620001d483836200023a60201b60201c565b6200022f57826000018290806001815401808255809150506001900390600052602060002001600090919091909150558260000180549050836001016000848152602001908152602001600020819055506001905062000234565b600090505b92915050565b600080836001016000848152602001908152602001600020541415905092915050565b6000815190506200026e81620002e9565b92915050565b600080604083850312156200028857600080fd5b600062000298858286016200025d565b9250506020620002ab858286016200025d565b9150509250929050565b6000620002c282620002c9565b9050919050565b600073ffffffffffffffffffffffffffffffffffffffff82169050919050565b620002f481620002b5565b81146200030057600080fd5b50565b61160980620003136000396000f3fe608060405234801561001057600080fd5b506004361061018e5760003560e01c806390096556116100de578063aef6be3c11610097578063d547741f11610071578063d547741f14610471578063dd5ba5901461048d578063e6c73540146104a9578063f6f172cb146104c75761018e565b8063aef6be3c146103f3578063c3c9da8214610423578063ca15c873146104415761018e565b8063900965561461031d5780639010d07c1461033957806391d1485414610369578063a217fddf14610399578063a41dd6e6146103b7578063a5379687146103d55761018e565b8063470913981161014b578063607bdd6811610125578063607bdd68146102a9578063632e329f146102c757806376092257146102e35780638fe63683146102ff5761018e565b80634709139814610251578063482879aa1461026d57806356593ea31461028b5761018e565b8063248a9ca3146101935780632f2ff15d146101c357806336568abe146101df57806338174654146101fb5780633b194dcc146102175780633e916ced14610233575b600080fd5b6101ad60048036038101906101a89190611272565b6104e3565b6040516101ba9190611405565b60405180910390f35b6101dd60048036038101906101d8919061129b565b610502565b005b6101f960048036038101906101f4919061129b565b61058b565b005b6102156004803603810190610210919061120d565b610624565b005b610231600480360381019061022c919061120d565b6106b4565b005b61023b610744565b60405161024891906113cf565b60405180910390f35b61026b6004803603810190610266919061120d565b61076a565b005b6102756107fa565b60405161028291906113cf565b60405180910390f35b610293610820565b6040516102a091906113cf565b60405180910390f35b6102b1610846565b6040516102be91906113cf565b60405180910390f35b6102e160048036038101906102dc919061120d565b61086c565b005b6102fd60048036038101906102f8919061120d565b6108fc565b005b61030761098c565b60405161031491906113cf565b60405180910390f35b6103376004803603810190610332919061120d565b6109b2565b005b610353600480360381019061034e91906112d7565b610a5f565b60405161036091906113cf565b60405180910390f35b610383600480360381019061037e919061129b565b610a90565b60405161039091906113ea565b60405180910390f35b6103a1610ac1565b6040516103ae9190611405565b60405180910390f35b6103bf610ac8565b6040516103cc9190611405565b60405180910390f35b6103dd610aec565b6040516103ea91906113cf565b60405180910390f35b61040d6004803603810190610408919061120d565b610b12565b60405161041a91906113cf565b60405180910390f35b61042b610b7b565b60405161043891906113cf565b60405180910390f35b61045b60048036038101906104569190611272565b610ba1565b6040516104689190611460565b60405180910390f35b61048b6004803603810190610486919061129b565b610bc7565b005b6104a760048036038101906104a2919061120d565b610c50565b005b6104b1610ce0565b6040516104be9190611405565b60405180910390f35b6104e160048036038101906104dc9190611236565b610d04565b005b6000806000838152602001908152602001600020600201549050919050565b61052860008084815260200190815260200160002060020154610523610e02565b610a90565b61057d576040517f08c379a000000000000000000000000000000000000000000000000000000000815260040180806020018281038252602f815260200180611546602f913960400191505060405180910390fd5b6105878282610e0a565b5050565b610593610e02565b73ffffffffffffffffffffffffffffffffffffffff168173ffffffffffffffffffffffffffffffffffffffff1614610616576040517f08c379a000000000000000000000000000000000000000000000000000000000815260040180806020018281038252602f8152602001806115a5602f913960400191505060405180910390fd5b6106208282610e9d565b5050565b6106316000801b33610a90565b610670576040517f08c379a000000000000000000000000000000000000000000000000000000000815260040161066790611440565b60405180910390fd5b80600560006101000a81548173ffffffffffffffffffffffffffffffffffffffff021916908373ffffffffffffffffffffffffffffffffffffffff16021790555050565b6106c16000801b33610a90565b610700576040517f08c379a00000000000000000000000000000000000000000000000000000000081526004016106f790611440565b60405180910390fd5b80600160006101000a81548173ffffffffffffffffffffffffffffffffffffffff021916908373ffffffffffffffffffffffffffffffffffffffff16021790555050565b600560009054906101000a900473ffffffffffffffffffffffffffffffffffffffff1681565b6107776000801b33610a90565b6107b6576040517f08c379a00000000000000000000000000000000000000000000000000000000081526004016107ad90611440565b60405180910390fd5b80600260006101000a81548173ffffffffffffffffffffffffffffffffffffffff021916908373ffffffffffffffffffffffffffffffffffffffff16021790555050565b600760009054906101000a900473ffffffffffffffffffffffffffffffffffffffff1681565b600260009054906101000a900473ffffffffffffffffffffffffffffffffffffffff1681565b600660009054906101000a900473ffffffffffffffffffffffffffffffffffffffff1681565b6108796000801b33610a90565b6108b8576040517f08c379a00000000000000000000000000000000000000000000000000000000081526004016108af90611440565b60405180910390fd5b80600460006101000a81548173ffffffffffffffffffffffffffffffffffffffff021916908373ffffffffffffffffffffffffffffffffffffffff16021790555050565b6109096000801b33610a90565b610948576040517f08c379a000000000000000000000000000000000000000000000000000000000815260040161093f90611440565b60405180910390fd5b80600360006101000a81548173ffffffffffffffffffffffffffffffffffffffff021916908373ffffffffffffffffffffffffffffffffffffffff16021790555050565b600160009054906101000a900473ffffffffffffffffffffffffffffffffffffffff1681565b6109dc7fb59de930ba65d9ac0d4dbd09127a305101a071683af551ffece1d125909542d833610a90565b610a1b576040517f08c379a0000000000000000000000000000000000000000000000000000000008152600401610a1290611420565b60405180910390fd5b80600760006101000a81548173ffffffffffffffffffffffffffffffffffffffff021916908373ffffffffffffffffffffffffffffffffffffffff16021790555050565b6000610a8882600080868152602001908152602001600020600001610f3090919063ffffffff16565b905092915050565b6000610ab982600080868152602001908152602001600020600001610f4a90919063ffffffff16565b905092915050565b6000801b81565b7feaff283aa1cb5c8448e8e6df1f1d9256a0b9e1d4a11bca9e915ecfb8d881be7e81565b600460009054906101000a900473ffffffffffffffffffffffffffffffffffffffff1681565b6000600860008373ffffffffffffffffffffffffffffffffffffffff1673ffffffffffffffffffffffffffffffffffffffff16815260200190815260200160002060009054906101000a900473ffffffffffffffffffffffffffffffffffffffff169050919050565b600360009054906101000a900473ffffffffffffffffffffffffffffffffffffffff1681565b6000610bc0600080848152602001908152602001600020600001610f7a565b9050919050565b610bed60008084815260200190815260200160002060020154610be8610e02565b610a90565b610c42576040517f08c379a00000000000000000000000000000000000000000000000000000000081526004018080602001828103825260308152602001806115756030913960400191505060405180910390fd5b610c4c8282610e9d565b5050565b610c5d6000801b33610a90565b610c9c576040517f08c379a0000000000000000000000000000000000000000000000000000000008152600401610c9390611440565b60405180910390fd5b80600660006101000a81548173ffffffffffffffffffffffffffffffffffffffff021916908373ffffffffffffffffffffffffffffffffffffffff16021790555050565b7fb59de930ba65d9ac0d4dbd09127a305101a071683af551ffece1d125909542d881565b610d116000801b33610a90565b610d50576040517f08c379a0000000000000000000000000000000000000000000000000000000008152600401610d4790611440565b60405180910390fd5b80600860008473ffffffffffffffffffffffffffffffffffffffff1673ffffffffffffffffffffffffffffffffffffffff16815260200190815260200160002060006101000a81548173ffffffffffffffffffffffffffffffffffffffff021916908373ffffffffffffffffffffffffffffffffffffffff1602179055505050565b6000610dfa836000018373ffffffffffffffffffffffffffffffffffffffff1660001b610f8f565b905092915050565b600033905090565b610e3181600080858152602001908152602001600020600001610dd290919063ffffffff16565b15610e9957610e3e610e02565b73ffffffffffffffffffffffffffffffffffffffff168173ffffffffffffffffffffffffffffffffffffffff16837f2f8788117e7eff1d82e926ec794901d17c78024a50270940304540a733656f0d60405160405180910390a45b5050565b610ec481600080858152602001908152602001600020600001610fff90919063ffffffff16565b15610f2c57610ed1610e02565b73ffffffffffffffffffffffffffffffffffffffff168173ffffffffffffffffffffffffffffffffffffffff16837ff6391f5c32d9c69d2a47ea670b442974b53935d1edc7fd64eb21e047a839171b60405160405180910390a45b5050565b6000610f3f836000018361102f565b60001c905092915050565b6000610f72836000018373ffffffffffffffffffffffffffffffffffffffff1660001b6110b2565b905092915050565b6000610f88826000016110d5565b9050919050565b6000610f9b83836110b2565b610ff4578260000182908060018154018082558091505060019003906000526020600020016000909190919091505582600001805490508360010160008481526020019081526020016000208190555060019050610ff9565b600090505b92915050565b6000611027836000018373ffffffffffffffffffffffffffffffffffffffff1660001b6110e6565b905092915050565b600081836000018054905011611090576040517f08c379a00000000000000000000000000000000000000000000000000000000081526004018080602001828103825260228152602001806115246022913960400191505060405180910390fd5b82600001828154811061109f57fe5b9060005260206000200154905092915050565b600080836001016000848152602001908152602001600020541415905092915050565b600081600001805490509050919050565b600080836001016000848152602001908152602001600020549050600081146111c2576000600182039050600060018660000180549050039050600086600001828154811061113157fe5b906000526020600020015490508087600001848154811061114e57fe5b906000526020600020018190555060018301876001016000838152602001908152602001600020819055508660000180548061118657fe5b600190038181906000526020600020016000905590558660010160008781526020019081526020016000206000905560019450505050506111c8565b60009150505b92915050565b6000813590506111dd816114de565b92915050565b6000813590506111f2816114f5565b92915050565b6000813590506112078161150c565b92915050565b60006020828403121561121f57600080fd5b600061122d848285016111ce565b91505092915050565b6000806040838503121561124957600080fd5b6000611257858286016111ce565b9250506020611268858286016111ce565b9150509250929050565b60006020828403121561128457600080fd5b6000611292848285016111e3565b91505092915050565b600080604083850312156112ae57600080fd5b60006112bc858286016111e3565b92505060206112cd858286016111ce565b9150509250929050565b600080604083850312156112ea57600080fd5b60006112f8858286016111e3565b9250506020611309858286016111f8565b9150509250929050565b61131c8161148c565b82525050565b61132b8161149e565b82525050565b61133a816114aa565b82525050565b600061134d601f8361147b565b91507f43616c6c6572206973206e6f74206120626f6e64696e67206d616e61676572006000830152602082019050919050565b600061138d60138361147b565b91507f43616c6c6572206973206e6f742061646d696e000000000000000000000000006000830152602082019050919050565b6113c9816114d4565b82525050565b60006020820190506113e46000830184611313565b92915050565b60006020820190506113ff6000830184611322565b92915050565b600060208201905061141a6000830184611331565b92915050565b6000602082019050818103600083015261143981611340565b9050919050565b6000602082019050818103600083015261145981611380565b9050919050565b600060208201905061147560008301846113c0565b92915050565b600082825260208201905092915050565b6000611497826114b4565b9050919050565b60008115159050919050565b6000819050919050565b600073ffffffffffffffffffffffffffffffffffffffff82169050919050565b6000819050919050565b6114e78161148c565b81146114f257600080fd5b50565b6114fe816114aa565b811461150957600080fd5b50565b611515816114d4565b811461152057600080fd5b5056fe456e756d657261626c655365743a20696e646578206f7574206f6620626f756e6473416363657373436f6e74726f6c3a2073656e646572206d75737420626520616e2061646d696e20746f206772616e74416363657373436f6e74726f6c3a2073656e646572206d75737420626520616e2061646d696e20746f207265766f6b65416363657373436f6e74726f6c3a2063616e206f6e6c792072656e6f756e636520726f6c657320666f722073656c66a2646970667358221220eb4bf42de63455a5237c6850601602566ec73d3307717288a81a89250c66a2e564736f6c63430007060033",
  "devdoc": {
    "details": "This should be used as a central access control manager which other contracts use to check permissions",
    "kind": "dev",
    "methods": {
      "getRoleAdmin(bytes32)": {
        "details": "Returns the admin role that controls `role`. See {grantRole} and {revokeRole}. To change a role's admin, use {_setRoleAdmin}."
      },
      "getRoleMember(bytes32,uint256)": {
        "details": "Returns one of the accounts that have `role`. `index` must be a value between 0 and {getRoleMemberCount}, non-inclusive. Role bearers are not sorted in any particular way, and their ordering may change at any point. WARNING: When using {getRoleMember} and {getRoleMemberCount}, make sure you perform all queries on the same block. See the following https://forum.openzeppelin.com/t/iterating-over-elements-on-enumerableset-in-openzeppelin-contracts/2296[forum post] for more information."
      },
      "getRoleMemberCount(bytes32)": {
        "details": "Returns the number of accounts that have `role`. Can be used together with {getRoleMember} to enumerate all bearers of a role."
      },
      "grantRole(bytes32,address)": {
        "details": "Grants `role` to `account`. If `account` had not been already granted `role`, emits a {RoleGranted} event. Requirements: - the caller must have ``role``'s admin role."
      },
      "hasRole(bytes32,address)": {
        "details": "Returns `true` if `account` has been granted `role`."
      },
      "renounceRole(bytes32,address)": {
        "details": "Revokes `role` from the calling account. Roles are often managed via {grantRole} and {revokeRole}: this function's purpose is to provide a mechanism for accounts to lose their privileges if they are compromised (such as when a trusted device is misplaced). If the calling account had been granted `role`, emits a {RoleRevoked} event. Requirements: - the caller must be `account`."
      },
      "revokeRole(bytes32,address)": {
        "details": "Revokes `role` from `account`. If `account` had been granted `role`, emits a {RoleRevoked} event. Requirements: - the caller must have ``role``'s admin role."
      }
    },
    "title": "A central config for the stabilitas system. Also acts as a central access control manager.",
    "version": 1
  },
  "userdoc": {
    "kind": "user",
    "methods": {},
    "notice": "For storing constants. For storing variables and allowing them to be changed by the admin (governance)",
    "version": 1
  },
  "storageLayout": {
    "storage": [
      {
        "astId": 45,
        "contract": "contracts/StabilitasConfig.sol:StabilitasConfig",
        "label": "_roles",
        "offset": 0,
        "slot": "0",
        "type": "t_mapping(t_bytes32,t_struct(RoleData)41_storage)"
      },
      {
        "astId": 1662,
        "contract": "contracts/StabilitasConfig.sol:StabilitasConfig",
        "label": "twapOracleAddress",
        "offset": 0,
        "slot": "1",
        "type": "t_address"
      },
      {
        "astId": 1664,
        "contract": "contracts/StabilitasConfig.sol:StabilitasConfig",
        "label": "debtCouponAddress",
        "offset": 0,
        "slot": "2",
        "type": "t_address"
      },
      {
        "astId": 1666,
        "contract": "contracts/StabilitasConfig.sol:StabilitasConfig",
        "label": "stabilitasTokenAddress",
        "offset": 0,
        "slot": "3",
        "type": "t_address"
      },
      {
        "astId": 1668,
        "contract": "contracts/StabilitasConfig.sol:StabilitasConfig",
        "label": "comparisonTokenAddress",
        "offset": 0,
        "slot": "4",
        "type": "t_address"
      },
      {
        "astId": 1670,
        "contract": "contracts/StabilitasConfig.sol:StabilitasConfig",
        "label": "couponCalculatorAddress",
        "offset": 0,
        "slot": "5",
        "type": "t_address"
      },
      {
        "astId": 1672,
        "contract": "contracts/StabilitasConfig.sol:StabilitasConfig",
        "label": "dollarCalculatorAddress",
        "offset": 0,
        "slot": "6",
        "type": "t_address"
      },
      {
        "astId": 1674,
        "contract": "contracts/StabilitasConfig.sol:StabilitasConfig",
        "label": "sablier",
        "offset": 0,
        "slot": "7",
        "type": "t_address"
      },
      {
        "astId": 1678,
        "contract": "contracts/StabilitasConfig.sol:StabilitasConfig",
        "label": "_excessDollarDistributors",
        "offset": 0,
        "slot": "8",
        "type": "t_mapping(t_address,t_address)"
      }
    ],
    "types": {
      "t_address": {
        "encoding": "inplace",
        "label": "address",
        "numberOfBytes": "20"
      },
      "t_array(t_bytes32)dyn_storage": {
        "base": "t_bytes32",
        "encoding": "dynamic_array",
        "label": "bytes32[]",
        "numberOfBytes": "32"
      },
      "t_bytes32": {
        "encoding": "inplace",
        "label": "bytes32",
        "numberOfBytes": "32"
      },
      "t_mapping(t_address,t_address)": {
        "encoding": "mapping",
        "key": "t_address",
        "label": "mapping(address => address)",
        "numberOfBytes": "32",
        "value": "t_address"
      },
      "t_mapping(t_bytes32,t_struct(RoleData)41_storage)": {
        "encoding": "mapping",
        "key": "t_bytes32",
        "label": "mapping(bytes32 => struct AccessControl.RoleData)",
        "numberOfBytes": "32",
        "value": "t_struct(RoleData)41_storage"
      },
      "t_mapping(t_bytes32,t_uint256)": {
        "encoding": "mapping",
        "key": "t_bytes32",
        "label": "mapping(bytes32 => uint256)",
        "numberOfBytes": "32",
        "value": "t_uint256"
      },
      "t_struct(AddressSet)1312_storage": {
        "encoding": "inplace",
        "label": "struct EnumerableSet.AddressSet",
        "members": [
          {
            "astId": 1311,
            "contract": "contracts/StabilitasConfig.sol:StabilitasConfig",
            "label": "_inner",
            "offset": 0,
            "slot": "0",
            "type": "t_struct(Set)1047_storage"
          }
        ],
        "numberOfBytes": "64"
      },
      "t_struct(RoleData)41_storage": {
        "encoding": "inplace",
        "label": "struct AccessControl.RoleData",
        "members": [
          {
            "astId": 38,
            "contract": "contracts/StabilitasConfig.sol:StabilitasConfig",
            "label": "members",
            "offset": 0,
            "slot": "0",
            "type": "t_struct(AddressSet)1312_storage"
          },
          {
            "astId": 40,
            "contract": "contracts/StabilitasConfig.sol:StabilitasConfig",
            "label": "adminRole",
            "offset": 0,
            "slot": "2",
            "type": "t_bytes32"
          }
        ],
        "numberOfBytes": "96"
      },
      "t_struct(Set)1047_storage": {
        "encoding": "inplace",
        "label": "struct EnumerableSet.Set",
        "members": [
          {
            "astId": 1042,
            "contract": "contracts/StabilitasConfig.sol:StabilitasConfig",
            "label": "_values",
            "offset": 0,
            "slot": "0",
            "type": "t_array(t_bytes32)dyn_storage"
          },
          {
            "astId": 1046,
            "contract": "contracts/StabilitasConfig.sol:StabilitasConfig",
            "label": "_indexes",
            "offset": 0,
            "slot": "1",
            "type": "t_mapping(t_bytes32,t_uint256)"
          }
        ],
        "numberOfBytes": "64"
      },
      "t_uint256": {
        "encoding": "inplace",
        "label": "uint256",
        "numberOfBytes": "32"
      }
    }
  }
}