{
  "address": "0xF2f52F9fca998D225eD7e7038534397De5341B20",
  "abi": [
    {
      "inputs": [
        {
          "internalType": "address",
          "name": "_admin",
          "type": "address"
        }
      ],
      "stateMutability": "nonpayable",
      "type": "constructor"
    },
    {
      "anonymous": false,
      "inputs": [
        {
          "indexed": true,
          "internalType": "bytes32",
          "name": "role",
          "type": "bytes32"
        },
        {
          "indexed": true,
          "internalType": "bytes32",
          "name": "previousAdminRole",
          "type": "bytes32"
        },
        {
          "indexed": true,
          "internalType": "bytes32",
          "name": "newAdminRole",
          "type": "bytes32"
        }
      ],
      "name": "RoleAdminChanged",
      "type": "event"
    },
    {
      "anonymous": false,
      "inputs": [
        {
          "indexed": true,
          "internalType": "bytes32",
          "name": "role",
          "type": "bytes32"
        },
        {
          "indexed": true,
          "internalType": "address",
          "name": "account",
          "type": "address"
        },
        {
          "indexed": true,
          "internalType": "address",
          "name": "sender",
          "type": "address"
        }
      ],
      "name": "RoleGranted",
      "type": "event"
    },
    {
      "anonymous": false,
      "inputs": [
        {
          "indexed": true,
          "internalType": "bytes32",
          "name": "role",
          "type": "bytes32"
        },
        {
          "indexed": true,
          "internalType": "address",
          "name": "account",
          "type": "address"
        },
        {
          "indexed": true,
          "internalType": "address",
          "name": "sender",
          "type": "address"
        }
      ],
      "name": "RoleRevoked",
      "type": "event"
    },
    {
      "inputs": [],
      "name": "BONDING_MANAGER_ROLE",
      "outputs": [
        {
          "internalType": "bytes32",
          "name": "",
          "type": "bytes32"
        }
      ],
      "stateMutability": "view",
      "type": "function"
    },
    {
      "inputs": [],
      "name": "COUPON_MANAGER_ROLE",
      "outputs": [
        {
          "internalType": "bytes32",
          "name": "",
          "type": "bytes32"
        }
      ],
      "stateMutability": "view",
      "type": "function"
    },
    {
      "inputs": [],
      "name": "DEFAULT_ADMIN_ROLE",
      "outputs": [
        {
          "internalType": "bytes32",
          "name": "",
          "type": "bytes32"
        }
      ],
      "stateMutability": "view",
      "type": "function"
    },
    {
      "inputs": [],
      "name": "comparisonTokenAddress",
      "outputs": [
        {
          "internalType": "address",
          "name": "",
          "type": "address"
        }
      ],
      "stateMutability": "view",
      "type": "function"
    },
    {
      "inputs": [],
      "name": "couponCalculatorAddress",
      "outputs": [
        {
          "internalType": "address",
          "name": "",
          "type": "address"
        }
      ],
      "stateMutability": "view",
      "type": "function"
    },
    {
      "inputs": [],
      "name": "debtCouponAddress",
      "outputs": [
        {
          "internalType": "address",
          "name": "",
          "type": "address"
        }
      ],
      "stateMutability": "view",
      "type": "function"
    },
    {
      "inputs": [],
      "name": "dollarCalculatorAddress",
      "outputs": [
        {
          "internalType": "address",
          "name": "",
          "type": "address"
        }
      ],
      "stateMutability": "view",
      "type": "function"
    },
    {
      "inputs": [
        {
          "internalType": "address",
          "name": "debtCouponManagerAddress",
          "type": "address"
        }
      ],
      "name": "getExcessDollarsDistributor",
      "outputs": [
        {
          "internalType": "address",
          "name": "",
          "type": "address"
        }
      ],
      "stateMutability": "view",
      "type": "function"
    },
    {
      "inputs": [
        {
          "internalType": "bytes32",
          "name": "role",
          "type": "bytes32"
        }
      ],
      "name": "getRoleAdmin",
      "outputs": [
        {
          "internalType": "bytes32",
          "name": "",
          "type": "bytes32"
        }
      ],
      "stateMutability": "view",
      "type": "function"
    },
    {
      "inputs": [
        {
          "internalType": "bytes32",
          "name": "role",
          "type": "bytes32"
        },
        {
          "internalType": "uint256",
          "name": "index",
          "type": "uint256"
        }
      ],
      "name": "getRoleMember",
      "outputs": [
        {
          "internalType": "address",
          "name": "",
          "type": "address"
        }
      ],
      "stateMutability": "view",
      "type": "function"
    },
    {
      "inputs": [
        {
          "internalType": "bytes32",
          "name": "role",
          "type": "bytes32"
        }
      ],
      "name": "getRoleMemberCount",
      "outputs": [
        {
          "internalType": "uint256",
          "name": "",
          "type": "uint256"
        }
      ],
      "stateMutability": "view",
      "type": "function"
    },
    {
      "inputs": [
        {
          "internalType": "bytes32",
          "name": "role",
          "type": "bytes32"
        },
        {
          "internalType": "address",
          "name": "account",
          "type": "address"
        }
      ],
      "name": "grantRole",
      "outputs": [],
      "stateMutability": "nonpayable",
      "type": "function"
    },
    {
      "inputs": [
        {
          "internalType": "bytes32",
          "name": "role",
          "type": "bytes32"
        },
        {
          "internalType": "address",
          "name": "account",
          "type": "address"
        }
      ],
      "name": "hasRole",
      "outputs": [
        {
          "internalType": "bool",
          "name": "",
          "type": "bool"
        }
      ],
      "stateMutability": "view",
      "type": "function"
    },
    {
      "inputs": [
        {
          "internalType": "bytes32",
          "name": "role",
          "type": "bytes32"
        },
        {
          "internalType": "address",
          "name": "account",
          "type": "address"
        }
      ],
      "name": "renounceRole",
      "outputs": [],
      "stateMutability": "nonpayable",
      "type": "function"
    },
    {
      "inputs": [
        {
          "internalType": "bytes32",
          "name": "role",
          "type": "bytes32"
        },
        {
          "internalType": "address",
          "name": "account",
          "type": "address"
        }
      ],
      "name": "revokeRole",
      "outputs": [],
      "stateMutability": "nonpayable",
      "type": "function"
    },
    {
      "inputs": [
        {
          "internalType": "address",
          "name": "_comparisonTokenAddress",
          "type": "address"
        }
      ],
      "name": "setComparisonTokenAddress",
      "outputs": [],
      "stateMutability": "nonpayable",
      "type": "function"
    },
    {
      "inputs": [
        {
          "internalType": "address",
          "name": "_couponCalculatorAddress",
          "type": "address"
        }
      ],
      "name": "setCouponCalculatorAddress",
      "outputs": [],
      "stateMutability": "nonpayable",
      "type": "function"
    },
    {
      "inputs": [
        {
          "internalType": "address",
          "name": "_debtCouponAddress",
          "type": "address"
        }
      ],
      "name": "setDebtCouponAddress",
      "outputs": [],
      "stateMutability": "nonpayable",
      "type": "function"
    },
    {
      "inputs": [
        {
          "internalType": "address",
          "name": "_dollarCalculatorAddress",
          "type": "address"
        }
      ],
      "name": "setDollarCalculatorAddress",
      "outputs": [],
      "stateMutability": "nonpayable",
      "type": "function"
    },
    {
      "inputs": [
        {
          "internalType": "address",
          "name": "debtCouponManagerAddress",
          "type": "address"
        },
        {
          "internalType": "address",
          "name": "excessCouponDistributor",
          "type": "address"
        }
      ],
      "name": "setExcessDollarsDistributor",
      "outputs": [],
      "stateMutability": "nonpayable",
      "type": "function"
    },
    {
      "inputs": [
        {
          "internalType": "address",
          "name": "_stabilitasTokenAddress",
          "type": "address"
        }
      ],
      "name": "setStabilitasTokenAddress",
      "outputs": [],
      "stateMutability": "nonpayable",
      "type": "function"
    },
    {
      "inputs": [
        {
          "internalType": "address",
          "name": "_twapOracleAddress",
          "type": "address"
        }
      ],
      "name": "setTwapOracleAddress",
      "outputs": [],
      "stateMutability": "nonpayable",
      "type": "function"
    },
    {
      "inputs": [],
      "name": "stabilitasTokenAddress",
      "outputs": [
        {
          "internalType": "address",
          "name": "",
          "type": "address"
        }
      ],
      "stateMutability": "view",
      "type": "function"
    },
    {
      "inputs": [],
      "name": "twapOracleAddress",
      "outputs": [
        {
          "internalType": "address",
          "name": "",
          "type": "address"
        }
      ],
      "stateMutability": "view",
      "type": "function"
    }
  ],
  "transactionHash": "0x9d4f28c60bac812a1e7f87d594d95def8c9562bc5b28cc0feb68057386cddc3a",
  "args": [
    "0x9747267eb0a350F978Da291a8Aa16c9A996f6366"
  ],
  "solcInputHash": "7b894d53212e36c79442fc1d07c9fdb5",
  "bytecode": "0x60806040523480156200001157600080fd5b506040516200175438038062001754833981810160405281019062000037919062000264565b6200004c6000801b82620000b760201b60201c565b6200007e7feaff283aa1cb5c8448e8e6df1f1d9256a0b9e1d4a11bca9e915ecfb8d881be7e82620000b760201b60201c565b620000b07fb59de930ba65d9ac0d4dbd09127a305101a071683af551ffece1d125909542d882620000b760201b60201c565b50620002de565b620000c98282620000cd60201b60201c565b5050565b620000fb816000808581526020019081526020016000206000016200017060201b62000c8f1790919060201c565b156200016c5762000111620001a860201b60201c565b73ffffffffffffffffffffffffffffffffffffffff168173ffffffffffffffffffffffffffffffffffffffff16837f2f8788117e7eff1d82e926ec794901d17c78024a50270940304540a733656f0d60405160405180910390a45b5050565b6000620001a0836000018373ffffffffffffffffffffffffffffffffffffffff1660001b620001b060201b60201c565b905092915050565b600033905090565b6000620001c483836200022a60201b60201c565b6200021f57826000018290806001815401808255809150506001900390600052602060002001600090919091909150558260000180549050836001016000848152602001908152602001600020819055506001905062000224565b600090505b92915050565b600080836001016000848152602001908152602001600020541415905092915050565b6000815190506200025e81620002c4565b92915050565b6000602082840312156200027757600080fd5b600062000287848285016200024d565b91505092915050565b60006200029d82620002a4565b9050919050565b600073ffffffffffffffffffffffffffffffffffffffff82169050919050565b620002cf8162000290565b8114620002db57600080fd5b50565b61146680620002ee6000396000f3fe608060405234801561001057600080fd5b50600436106101585760003560e01c80639010d07c116100c3578063c3c9da821161007c578063c3c9da82146103b3578063ca15c873146103d1578063d547741f14610401578063dd5ba5901461041d578063e6c7354014610439578063f6f172cb1461045757610158565b80639010d07c146102c957806391d14854146102f9578063a217fddf14610329578063a41dd6e614610347578063a537968714610365578063aef6be3c1461038357610158565b80634709139811610115578063470913981461021b57806356593ea314610237578063607bdd6814610255578063632e329f14610273578063760922571461028f5780638fe63683146102ab57610158565b8063248a9ca31461015d5780632f2ff15d1461018d57806336568abe146101a957806338174654146101c55780633b194dcc146101e15780633e916ced146101fd575b600080fd5b6101776004803603810190610172919061112f565b610473565b6040516101849190611282565b60405180910390f35b6101a760048036038101906101a29190611158565b610492565b005b6101c360048036038101906101be9190611158565b61051b565b005b6101df60048036038101906101da91906110ca565b6105b4565b005b6101fb60048036038101906101f691906110ca565b610644565b005b6102056106d4565b604051610212919061124c565b60405180910390f35b610235600480360381019061023091906110ca565b6106fa565b005b61023f61078a565b60405161024c919061124c565b60405180910390f35b61025d6107b0565b60405161026a919061124c565b60405180910390f35b61028d600480360381019061028891906110ca565b6107d6565b005b6102a960048036038101906102a491906110ca565b610866565b005b6102b36108f6565b6040516102c0919061124c565b60405180910390f35b6102e360048036038101906102de9190611194565b61091c565b6040516102f0919061124c565b60405180910390f35b610313600480360381019061030e9190611158565b61094d565b6040516103209190611267565b60405180910390f35b61033161097e565b60405161033e9190611282565b60405180910390f35b61034f610985565b60405161035c9190611282565b60405180910390f35b61036d6109a9565b60405161037a919061124c565b60405180910390f35b61039d600480360381019061039891906110ca565b6109cf565b6040516103aa919061124c565b60405180910390f35b6103bb610a38565b6040516103c8919061124c565b60405180910390f35b6103eb60048036038101906103e6919061112f565b610a5e565b6040516103f891906112bd565b60405180910390f35b61041b60048036038101906104169190611158565b610a84565b005b610437600480360381019061043291906110ca565b610b0d565b005b610441610b9d565b60405161044e9190611282565b60405180910390f35b610471600480360381019061046c91906110f3565b610bc1565b005b6000806000838152602001908152602001600020600201549050919050565b6104b8600080848152602001908152602001600020600201546104b3610cbf565b61094d565b61050d576040517f08c379a000000000000000000000000000000000000000000000000000000000815260040180806020018281038252602f8152602001806113a3602f913960400191505060405180910390fd5b6105178282610cc7565b5050565b610523610cbf565b73ffffffffffffffffffffffffffffffffffffffff168173ffffffffffffffffffffffffffffffffffffffff16146105a6576040517f08c379a000000000000000000000000000000000000000000000000000000000815260040180806020018281038252602f815260200180611402602f913960400191505060405180910390fd5b6105b08282610d5a565b5050565b6105c16000801b3361094d565b610600576040517f08c379a00000000000000000000000000000000000000000000000000000000081526004016105f79061129d565b60405180910390fd5b80600560006101000a81548173ffffffffffffffffffffffffffffffffffffffff021916908373ffffffffffffffffffffffffffffffffffffffff16021790555050565b6106516000801b3361094d565b610690576040517f08c379a00000000000000000000000000000000000000000000000000000000081526004016106879061129d565b60405180910390fd5b80600160006101000a81548173ffffffffffffffffffffffffffffffffffffffff021916908373ffffffffffffffffffffffffffffffffffffffff16021790555050565b600560009054906101000a900473ffffffffffffffffffffffffffffffffffffffff1681565b6107076000801b3361094d565b610746576040517f08c379a000000000000000000000000000000000000000000000000000000000815260040161073d9061129d565b60405180910390fd5b80600260006101000a81548173ffffffffffffffffffffffffffffffffffffffff021916908373ffffffffffffffffffffffffffffffffffffffff16021790555050565b600260009054906101000a900473ffffffffffffffffffffffffffffffffffffffff1681565b600660009054906101000a900473ffffffffffffffffffffffffffffffffffffffff1681565b6107e36000801b3361094d565b610822576040517f08c379a00000000000000000000000000000000000000000000000000000000081526004016108199061129d565b60405180910390fd5b80600460006101000a81548173ffffffffffffffffffffffffffffffffffffffff021916908373ffffffffffffffffffffffffffffffffffffffff16021790555050565b6108736000801b3361094d565b6108b2576040517f08c379a00000000000000000000000000000000000000000000000000000000081526004016108a99061129d565b60405180910390fd5b80600360006101000a81548173ffffffffffffffffffffffffffffffffffffffff021916908373ffffffffffffffffffffffffffffffffffffffff16021790555050565b600160009054906101000a900473ffffffffffffffffffffffffffffffffffffffff1681565b600061094582600080868152602001908152602001600020600001610ded90919063ffffffff16565b905092915050565b600061097682600080868152602001908152602001600020600001610e0790919063ffffffff16565b905092915050565b6000801b81565b7feaff283aa1cb5c8448e8e6df1f1d9256a0b9e1d4a11bca9e915ecfb8d881be7e81565b600460009054906101000a900473ffffffffffffffffffffffffffffffffffffffff1681565b6000600760008373ffffffffffffffffffffffffffffffffffffffff1673ffffffffffffffffffffffffffffffffffffffff16815260200190815260200160002060009054906101000a900473ffffffffffffffffffffffffffffffffffffffff169050919050565b600360009054906101000a900473ffffffffffffffffffffffffffffffffffffffff1681565b6000610a7d600080848152602001908152602001600020600001610e37565b9050919050565b610aaa60008084815260200190815260200160002060020154610aa5610cbf565b61094d565b610aff576040517f08c379a00000000000000000000000000000000000000000000000000000000081526004018080602001828103825260308152602001806113d26030913960400191505060405180910390fd5b610b098282610d5a565b5050565b610b1a6000801b3361094d565b610b59576040517f08c379a0000000000000000000000000000000000000000000000000000000008152600401610b509061129d565b60405180910390fd5b80600660006101000a81548173ffffffffffffffffffffffffffffffffffffffff021916908373ffffffffffffffffffffffffffffffffffffffff16021790555050565b7fb59de930ba65d9ac0d4dbd09127a305101a071683af551ffece1d125909542d881565b610bce6000801b3361094d565b610c0d576040517f08c379a0000000000000000000000000000000000000000000000000000000008152600401610c049061129d565b60405180910390fd5b80600760008473ffffffffffffffffffffffffffffffffffffffff1673ffffffffffffffffffffffffffffffffffffffff16815260200190815260200160002060006101000a81548173ffffffffffffffffffffffffffffffffffffffff021916908373ffffffffffffffffffffffffffffffffffffffff1602179055505050565b6000610cb7836000018373ffffffffffffffffffffffffffffffffffffffff1660001b610e4c565b905092915050565b600033905090565b610cee81600080858152602001908152602001600020600001610c8f90919063ffffffff16565b15610d5657610cfb610cbf565b73ffffffffffffffffffffffffffffffffffffffff168173ffffffffffffffffffffffffffffffffffffffff16837f2f8788117e7eff1d82e926ec794901d17c78024a50270940304540a733656f0d60405160405180910390a45b5050565b610d8181600080858152602001908152602001600020600001610ebc90919063ffffffff16565b15610de957610d8e610cbf565b73ffffffffffffffffffffffffffffffffffffffff168173ffffffffffffffffffffffffffffffffffffffff16837ff6391f5c32d9c69d2a47ea670b442974b53935d1edc7fd64eb21e047a839171b60405160405180910390a45b5050565b6000610dfc8360000183610eec565b60001c905092915050565b6000610e2f836000018373ffffffffffffffffffffffffffffffffffffffff1660001b610f6f565b905092915050565b6000610e4582600001610f92565b9050919050565b6000610e588383610f6f565b610eb1578260000182908060018154018082558091505060019003906000526020600020016000909190919091505582600001805490508360010160008481526020019081526020016000208190555060019050610eb6565b600090505b92915050565b6000610ee4836000018373ffffffffffffffffffffffffffffffffffffffff1660001b610fa3565b905092915050565b600081836000018054905011610f4d576040517f08c379a00000000000000000000000000000000000000000000000000000000081526004018080602001828103825260228152602001806113816022913960400191505060405180910390fd5b826000018281548110610f5c57fe5b9060005260206000200154905092915050565b600080836001016000848152602001908152602001600020541415905092915050565b600081600001805490509050919050565b6000808360010160008481526020019081526020016000205490506000811461107f5760006001820390506000600186600001805490500390506000866000018281548110610fee57fe5b906000526020600020015490508087600001848154811061100b57fe5b906000526020600020018190555060018301876001016000838152602001908152602001600020819055508660000180548061104357fe5b60019003818190600052602060002001600090559055866001016000878152602001908152602001600020600090556001945050505050611085565b60009150505b92915050565b60008135905061109a8161133b565b92915050565b6000813590506110af81611352565b92915050565b6000813590506110c481611369565b92915050565b6000602082840312156110dc57600080fd5b60006110ea8482850161108b565b91505092915050565b6000806040838503121561110657600080fd5b60006111148582860161108b565b92505060206111258582860161108b565b9150509250929050565b60006020828403121561114157600080fd5b600061114f848285016110a0565b91505092915050565b6000806040838503121561116b57600080fd5b6000611179858286016110a0565b925050602061118a8582860161108b565b9150509250929050565b600080604083850312156111a757600080fd5b60006111b5858286016110a0565b92505060206111c6858286016110b5565b9150509250929050565b6111d9816112e9565b82525050565b6111e8816112fb565b82525050565b6111f781611307565b82525050565b600061120a6013836112d8565b91507f43616c6c6572206973206e6f742061646d696e000000000000000000000000006000830152602082019050919050565b61124681611331565b82525050565b600060208201905061126160008301846111d0565b92915050565b600060208201905061127c60008301846111df565b92915050565b600060208201905061129760008301846111ee565b92915050565b600060208201905081810360008301526112b6816111fd565b9050919050565b60006020820190506112d2600083018461123d565b92915050565b600082825260208201905092915050565b60006112f482611311565b9050919050565b60008115159050919050565b6000819050919050565b600073ffffffffffffffffffffffffffffffffffffffff82169050919050565b6000819050919050565b611344816112e9565b811461134f57600080fd5b50565b61135b81611307565b811461136657600080fd5b50565b61137281611331565b811461137d57600080fd5b5056fe456e756d657261626c655365743a20696e646578206f7574206f6620626f756e6473416363657373436f6e74726f6c3a2073656e646572206d75737420626520616e2061646d696e20746f206772616e74416363657373436f6e74726f6c3a2073656e646572206d75737420626520616e2061646d696e20746f207265766f6b65416363657373436f6e74726f6c3a2063616e206f6e6c792072656e6f756e636520726f6c657320666f722073656c66a2646970667358221220e862dde75d9f341c694b225616a665fab5e2ccb3347fe54e70d875131b401ae964736f6c63430007060033",
  "devdoc": {
    "details": "This should be used as a central access control manager which other contracts use to check permissions",
    "kind": "dev",
    "methods": {
      "getRoleAdmin(bytes32)": {
        "details": "Returns the admin role that controls `role`. See {grantRole} and {revokeRole}. To change a role's admin, use {_setRoleAdmin}."
      },
      "getRoleMember(bytes32,uint256)": {
        "details": "Returns one of the accounts that have `role`. `index` must be a value between 0 and {getRoleMemberCount}, non-inclusive. Role bearers are not sorted in any particular way, and their ordering may change at any point. WARNING: When using {getRoleMember} and {getRoleMemberCount}, make sure you perform all queries on the same block. See the following https://forum.openzeppelin.com/t/iterating-over-elements-on-enumerableset-in-openzeppelin-contracts/2296[forum post] for more information."
      },
      "getRoleMemberCount(bytes32)": {
        "details": "Returns the number of accounts that have `role`. Can be used together with {getRoleMember} to enumerate all bearers of a role."
      },
      "grantRole(bytes32,address)": {
        "details": "Grants `role` to `account`. If `account` had not been already granted `role`, emits a {RoleGranted} event. Requirements: - the caller must have ``role``'s admin role."
      },
      "hasRole(bytes32,address)": {
        "details": "Returns `true` if `account` has been granted `role`."
      },
      "renounceRole(bytes32,address)": {
        "details": "Revokes `role` from the calling account. Roles are often managed via {grantRole} and {revokeRole}: this function's purpose is to provide a mechanism for accounts to lose their privileges if they are compromised (such as when a trusted device is misplaced). If the calling account had been granted `role`, emits a {RoleRevoked} event. Requirements: - the caller must be `account`."
      },
      "revokeRole(bytes32,address)": {
        "details": "Revokes `role` from `account`. If `account` had been granted `role`, emits a {RoleRevoked} event. Requirements: - the caller must have ``role``'s admin role."
      }
    },
    "title": "A central config for the stabilitas system. Also acts as a central access control manager.",
    "version": 1
  },
  "userdoc": {
    "kind": "user",
    "methods": {},
    "notice": "For storing constants. For storing variables and allowing them to be changed by the admin (governance)",
    "version": 1
  },
  "storageLayout": {
    "storage": [
      {
        "astId": 45,
        "contract": "contracts/StabilitasConfig.sol:StabilitasConfig",
        "label": "_roles",
        "offset": 0,
        "slot": "0",
        "type": "t_mapping(t_bytes32,t_struct(RoleData)41_storage)"
      },
      {
        "astId": 1681,
        "contract": "contracts/StabilitasConfig.sol:StabilitasConfig",
        "label": "twapOracleAddress",
        "offset": 0,
        "slot": "1",
        "type": "t_address"
      },
      {
        "astId": 1683,
        "contract": "contracts/StabilitasConfig.sol:StabilitasConfig",
        "label": "debtCouponAddress",
        "offset": 0,
        "slot": "2",
        "type": "t_address"
      },
      {
        "astId": 1685,
        "contract": "contracts/StabilitasConfig.sol:StabilitasConfig",
        "label": "stabilitasTokenAddress",
        "offset": 0,
        "slot": "3",
        "type": "t_address"
      },
      {
        "astId": 1687,
        "contract": "contracts/StabilitasConfig.sol:StabilitasConfig",
        "label": "comparisonTokenAddress",
        "offset": 0,
        "slot": "4",
        "type": "t_address"
      },
      {
        "astId": 1689,
        "contract": "contracts/StabilitasConfig.sol:StabilitasConfig",
        "label": "couponCalculatorAddress",
        "offset": 0,
        "slot": "5",
        "type": "t_address"
      },
      {
        "astId": 1691,
        "contract": "contracts/StabilitasConfig.sol:StabilitasConfig",
        "label": "dollarCalculatorAddress",
        "offset": 0,
        "slot": "6",
        "type": "t_address"
      },
      {
        "astId": 1695,
        "contract": "contracts/StabilitasConfig.sol:StabilitasConfig",
        "label": "_excessDollarDistributors",
        "offset": 0,
        "slot": "7",
        "type": "t_mapping(t_address,t_address)"
      }
    ],
    "types": {
      "t_address": {
        "encoding": "inplace",
        "label": "address",
        "numberOfBytes": "20"
      },
      "t_array(t_bytes32)dyn_storage": {
        "base": "t_bytes32",
        "encoding": "dynamic_array",
        "label": "bytes32[]",
        "numberOfBytes": "32"
      },
      "t_bytes32": {
        "encoding": "inplace",
        "label": "bytes32",
        "numberOfBytes": "32"
      },
      "t_mapping(t_address,t_address)": {
        "encoding": "mapping",
        "key": "t_address",
        "label": "mapping(address => address)",
        "numberOfBytes": "32",
        "value": "t_address"
      },
      "t_mapping(t_bytes32,t_struct(RoleData)41_storage)": {
        "encoding": "mapping",
        "key": "t_bytes32",
        "label": "mapping(bytes32 => struct AccessControl.RoleData)",
        "numberOfBytes": "32",
        "value": "t_struct(RoleData)41_storage"
      },
      "t_mapping(t_bytes32,t_uint256)": {
        "encoding": "mapping",
        "key": "t_bytes32",
        "label": "mapping(bytes32 => uint256)",
        "numberOfBytes": "32",
        "value": "t_uint256"
      },
      "t_struct(AddressSet)1312_storage": {
        "encoding": "inplace",
        "label": "struct EnumerableSet.AddressSet",
        "members": [
          {
            "astId": 1311,
            "contract": "contracts/StabilitasConfig.sol:StabilitasConfig",
            "label": "_inner",
            "offset": 0,
            "slot": "0",
            "type": "t_struct(Set)1047_storage"
          }
        ],
        "numberOfBytes": "64"
      },
      "t_struct(RoleData)41_storage": {
        "encoding": "inplace",
        "label": "struct AccessControl.RoleData",
        "members": [
          {
            "astId": 38,
            "contract": "contracts/StabilitasConfig.sol:StabilitasConfig",
            "label": "members",
            "offset": 0,
            "slot": "0",
            "type": "t_struct(AddressSet)1312_storage"
          },
          {
            "astId": 40,
            "contract": "contracts/StabilitasConfig.sol:StabilitasConfig",
            "label": "adminRole",
            "offset": 0,
            "slot": "2",
            "type": "t_bytes32"
          }
        ],
        "numberOfBytes": "96"
      },
      "t_struct(Set)1047_storage": {
        "encoding": "inplace",
        "label": "struct EnumerableSet.Set",
        "members": [
          {
            "astId": 1042,
            "contract": "contracts/StabilitasConfig.sol:StabilitasConfig",
            "label": "_values",
            "offset": 0,
            "slot": "0",
            "type": "t_array(t_bytes32)dyn_storage"
          },
          {
            "astId": 1046,
            "contract": "contracts/StabilitasConfig.sol:StabilitasConfig",
            "label": "_indexes",
            "offset": 0,
            "slot": "1",
            "type": "t_mapping(t_bytes32,t_uint256)"
          }
        ],
        "numberOfBytes": "64"
      },
      "t_uint256": {
        "encoding": "inplace",
        "label": "uint256",
        "numberOfBytes": "32"
      }
    }
  }
}